:020000040800F2
:1000000000040020FF0200084D0E00084F0E0008FB
:10001000530E0008570E00085B0E00080000000099
:100020000000000000000000000000005F0E00085B
:10003000610E000800000000630E0008650E000855
:100040001F0300081F0300081F0300081F03000808
:100050001F0300081F0300081F0300081F030008F8
:100060001F0300081F0300081F0300081F030008E8
:100070001F0300081F0300081F0300081F030008D8
:100080001F0300081F0300081F0300081F030008C8
:100090001F0300081F0300081F0300081F030008B8
:1000A0001F0300081F0300081F0300081F030008A8
:1000B000730500088F050008AB0500081F03000842
:1000C0001F0300081F0300081F0300081F03000888
:1000D0001F030008110700081F0300081F03000882
:1000E0001F0300081F0300081F0300081F03000868
:1000F0001F0300081F0300081F0300081F03000858
:100100001F0300081F0300081F0300081F03000847
:100110001F0300081F0300081F0300081F03000837
:100120001F0300081F0300081F0300081F03000827
:1001300000F002F800F041F80AA090E8000C8244B8
:100140008344AAF10107DA4501D100F036F8AFF295
:10015000090EBAE80F0013F0010F18BFFB1A43F0A5
:1001600001031847D02D0000F02D0000103A24BFE5
:1001700078C878C1FAD8520724BF30C830C144BF0C
:1001800004680C607047000000230024002500264E
:10019000103A28BF78C1FBD8520728BF30C148BFEA
:1001A0000B607047642902F02985002070471FB555
:1001B00002F0B8FE1FBD10B510BD02F07DFE114665
:1001C000FFF7F5FF00F036F902F09BFE03B4FFF7EE
:1001D000F2FF03BC00F030FA00210020434A12680D
:1001E00042F48032414B1A6000BF404A126802F468
:1001F0000030491C10B9B1F5A06FF6D13B4A126826
:1002000012F4003F01D0012000E00020012843D17A
:10021000374A126842F01002354B1A601A461268CB
:1002200022F003021A601A46126842F002021A60B3
:100230002E4A52682D4B5A601A4652685A601A4626
:10024000526842F480625A601A46526822F47C1264
:100250005A601A46526842F4E8125A601A46126806
:1002600042F080721A6000BF204A126812F0007FCC
:10027000FAD01E4A526822F003021C4B5A601A46FA
:10028000526842F002025A6000BF184A526802F0F7
:100290000C02082AF9D101E000BFFEE7704710B553
:1002A000FFF79AFF10BD10B51048006840F001003C
:1002B0000E490860084640680E4908400B494860EE
:1002C000084600680C49084008490860084600686C
:1002D00020F4802008600846406820F4FE00486052
:1002E0004FF41F008860FFF7DAFF10BD00100240D6
:1002F000002002400000FFF8FFFFF6FE70470B48A9
:1003000080470B4981F308880A480047FEE7FEE76B
:10031000FEE7FEE7FEE7FEE7FEE7FEE7FEE7FEE7B5
:1003200005480649064A074B70470000FD020008D1
:100330009008002031010008900000209008002063
:100340009004002090040020002109E0002201E038
:10035000531C9AB242F614039A42F9DB4B1C99B231
:100360008142F3DB704708B501214FF4B07002F011
:10037000D0F94FF48040ADF8000010208DF8030054
:1003800003208DF802006946954801F01FFF4FF4E5
:100390000050ADF8000010208DF8030003208DF808
:1003A000020069468F4801F011FF08BD08B5002121
:1003B0004FF0006001F06EFE4FF4A06001F02AFEE5
:1003C00025208DF8000000208DF801008DF8020036
:1003D00001208DF80300684601F021FE1C208DF8F5
:1003E000000001208DF8010000208DF8020001209E
:1003F0008DF80300684601F012FE1D208DF8000004
:1004000001208DF801008DF802008DF80300684688
:1004100001F005FE1E208DF8000001208DF801007E
:1004200002208DF8020001208DF80300684601F0DB
:10043000F6FD08BDFFF737FFFFF7B8FFFFF793FFA3
:1004400000F028F94FF4E13000F044F900F0C3F96E
:1004500000F0DBF900F002FA00F075FA00F051FA52
:1004600000F010FC00F023FC00F08EFC80E05E4801
:1004700000686FEA00005D49C1F8B8014FF0C8009C
:10048000FFF762FF5A4800885A490880098840F6F9
:10049000E44201FB02F0C11700EB1151C1F30F312F
:1004A000544A1180104600884FF47A7190FBF1F0A5
:1004B0005149088010460088642190FBF1F00A2120
:1004C00090FBF1F201FB12004C490880494800887A
:1004D0000A2190FBF1F090FBF1F201FB1200484978
:1004E0000880444800880A2190FBF1F201FB1200C9
:1004F00044490880302000F088F93F4800883030B7
:100500003D490880982000F080F93B48008800F0C1
:10051000A5F93A48008830303849088008460088F4
:1005200000F09CF93648008830303549088008468C
:10053000008800F093F93348008830303149088052
:100540000846008800F08AF901223C21082000F0CA
:1005500058FA284801882CA002F01CFB2F48D0F83C
:10056000B401C0432E4908604FF0000021490880C3
:100570007DE710B50121880701F038FD30B1012079
:10058000284908800121800701F041FD10BD10B508
:100590000121254801F02AFD30B1012023490880BE
:1005A0000121214801F033FD10BD10B50121204883
:1005B00001F01CFD30B101201E49088001211C48BA
:1005C00001F025FD10BD002107E0002201E0531CD1
:1005D0009AB2092AFBDB4B1C99B28142F5DB7047CA
:1005E0000020014000140140B801244200002442D0
:1005F0001400002000000020080000200A00002055
:100600000C0000200E00002041444331B5C4B2C9A3
:10061000BCAFD6B53D253364000000000080224207
:10062000B4812242020000200004004004000020A7
:100630000008004006000020014600BF704770B56A
:1006400004460D4600BF80213D4802F048FA0028CC
:10065000F9D0A1B23A4802F0EBF9204670BD10B5CE
:10066000044600BF8021364802F039FA0028F9D04C
:100670002146334802F0DCF910BD10B500BF20213F
:100680002F4802F02CFA0028F9D02D4802F0D4F9B6
:10069000C0B210BD08B5012144F2040002F039F8DF
:1006A0004FF40070ADF8000018208DF8030003200F
:1006B0008DF802006946234801F088FD4FF4806000
:1006C000ADF8000004208DF8030069461D4801F0D4
:1006D0007DFD08BD1FB5044600940020ADF8040060
:1006E000ADF80600ADF80800ADF80C000C20ADF830
:1006F0000A006946124802F0BAF8012240F2255178
:100700000F4802F031F901210D4802F021F91FBD17
:1007100010B540F225510A4802F0F7F940F2255190
:10072000074802F01CFA064802F086F9C4B22146D6
:1007300005A002F02FFA05A002F02CFA10BD00006F
:100740000038014000080140256400000A0D000047
:10075000002109E0002201E0531C9AB242F6140382
:100760009A42F9DB4B1C99B28142F3DB70470021BE
:1007700007E0002201E0531C9AB2092AFBDB4B1C64
:1007800099B28142F5DB704708B510208DF803005F
:1007900003208DF8020040F6FF70ADF80000012143
:1007A000202001F0B6FF6946FF4801F00FFD08BDAB
:1007B00008B504208DF8030003208DF80200FF2007
:1007C000ADF800000121202001F0A3FF6946F648A2
:1007D00001F0FCFC08BD10B5FFF7EAFF4FF4807193
:1007E000F14801F0A0FD4FF40071EF4801F099FDD0
:1007F0004FF48061EC4801F094FD4FF48061EA48C9
:1008000001F091FDFFF7C0FF10BD10B50446FFF7E2
:10081000E2FF4FF48071E44801F085FD4FF4007170
:10082000E14801F080FD4FF48061DF4801F079FD7F
:10083000DE48006800F47F4040EA0400DC49C1F86B
:100840000C044FF00200FFF783FF4FF48061D6489D
:1008500001F069FD0220FFF77BFF10BD10B50446D3
:10086000FFF7B9FF4FF48071CF4801F05AFD4FF404
:100870000071CD4801F057FD4FF48061CA4801F086
:1008800050FDCA48006800F47F4040EA0400C849AF
:10089000C1F80C044FF00200FFF75AFF4FF48061DB
:1008A000C14801F040FD0220FFF752FF10BD10B516
:1008B000FFF791FFFFF77CFF4FF48071BA4801F01A
:1008C00030FD4FF40071B84801F02BFD4FF480610A
:1008D000B54801F028FD0A20FFF749FF4FF4806179
:1008E000B14801F01EFDB04801F00AFD00F080049F
:1008F0004FF48061AC4801F016FDFFF745FF20463C
:1009000010BD70B53420FFF780FF3620FFF77DFF64
:10091000002415E004F18001C8B2FFF776FF8020C3
:10092000FFF773FF002507E00020FFF797FF002087
:10093000FFF794FF681CC5B2102DF5DB601CC4B234
:10094000202CE7DB70BD10B5FFF71EFF4FF40061F0
:10095000954801F0E6FC0220FFF7FAFE3020FFF791
:1009600054FF0220FFF7F4FE3020FFF74EFF022075
:10097000FFF7EEFE0120FFF748FF0220FFF7E8FE39
:100980000620FFF742FF0220FFF7E2FE0C20FFF7F0
:100990003CFF0220FFF7DCFE10BD10B5044606E068
:1009A0002078FFF75BFF641C0220FFF7D1FE207860
:1009B0000028F5D110BD70B505460C46012D06D0B6
:1009C000022D0AD0032D0ED0042D18D111E004F110
:1009D0007F01C8B2FFF719FF11E004F18F01C8B21F
:1009E000FFF713FF0BE004F18701C8B2FFF70DFF1B
:1009F00005E004F19701C8B2FFF707FF00BF00BF91
:100A000070BD2DE9F74F804689463420FFF7FDFE83
:100A1000CA464FEA281B08F00F04BAF1200F01DA8A
:100A2000574606E0AAF12000C7B20BF1080000F01B
:100A3000FF0B07F18000C0B2FFF7E7FE0BF180006B
:100A4000C0B2FFF7E2FEFFF732FFFFF730FF0546C7
:100A5000FFF72DFF064607F18000C0B2FFF7D5FE75
:100A60000BF18000C0B2FFF7D0FE082C23DA029809
:100A700020B1012808D0022814D10CE0C4F10700ED
:100A8000012181408D430EE0C4F10701012088401F
:100A90002843C5B207E0C4F107010120884068403F
:100AA000C5B200E000BF00BF2846FFF7D7FE3046C2
:100AB000FFF7D4FE22E0029820B1012808D00228D6
:100AC00014D10CE0C4F10F00012181408E430EE0EF
:100AD000C4F10F01012088403043C6B207E0C4F1E1
:100AE0000F01012088407040C6B200E000BF00BF87
:100AF0002846FFF7B3FE3046FFF7B0FE3620FFF77B
:100B000084FE3020FFF781FEBDE8FE8F2DE9FC5FFB
:100B10000746884607F07F0408F03F052046E117A6
:100B200004EB11714FEA211904F00F062846E9176A
:100B300005EBD1614911019105F01F0A3620FFF73D
:100B400064FE0AF18001C8B2FFF75FFE09F180017F
:100B50000823019A03FB0211C8B2FFF756FEFFF704
:100B6000A6FEFFF7A4FE8346FFF7A1FE00900AF160
:100B70008001C8B2FFF749FE09F180010823019AFC
:100B800003FB0211C8B2FFF740FE082E12DAC6F1CD
:100B900007020121914041EA0B01C8B2FFF75EFE56
:100BA0000098FFF75BFE11E0001401400C140140B7
:100BB000001001405846FFF751FEC6F10F02012117
:100BC0009140009A1143C8B2FFF748FE3020FFF76A
:100BD0001CFEBDE8FC9F2DE9FE4F06460F469046E1
:100BE00099463620FFF711FE06F07F0407F03F0517
:100BF0002046E11704EB11714FEA211B04F00F00AE
:100C000002902846E91705EBD1614911019105F0E1
:100C10001F00009000998031C8B2FFF7F6FD0199DE
:100C2000C90080315944C8B2FFF7EFFD4FF0000A08
:100C30000DE0B9F1000F03D05520FFF70FFE02E0E1
:100C4000FF20FFF70BFE0AF1010000F0FF0AC2458A
:100C5000EFDB3020FFF7D9FDBDE8FE8F10B5802017
:100C6000FFF7D3FD002404E05520FFF7F7FD601CDB
:100C7000C4B2102CF8DB012310223F210020FFF723
:100C8000AAFF10BD08B50121084601F035FD01217C
:100C90004FF4047001F03DFD00208DF803000720A3
:100CA000ADF800006946344801F090FA08BD00B57F
:100CB00091B0324800F0F8FA314806903148079078
:100CC000002008900120099000200A900B904FF41A
:100CD00080700C9080000D9020200E9000020F90EC
:100CE0000020109006A9254800F07DFB0121234833
:100CF00000F0A4FB0020019001208DF808008DF881
:100D000009004FF4602003900020049001208DF82A
:100D1000140001A91A484C3800F0CDF8072301222D
:100D20000B2117484C3800F05EF9012114484C386B
:100D300000F0F8F8012112484C3800F0E8F81048AB
:100D40004C3800F006F900BF0D484C3800F006F9A9
:100D50000028F9D10A484C3800F00AF900BF0848C9
:100D60004C3800F00AF90028F9D1012104484C3828
:100D700000F00DF911B000BD001001400800024064
:100D80004C240140140000200EB50121084601F05A
:100D9000CDFC0121022001F0C9FC0121042001F059
:100DA000C5FC4CF25030ADF8040040F2CF20ADF855
:100DB00000000020ADF80600ADF8020069464FF0D3
:100DC000804000F0F3FB01221146900700F074FE12
:100DD0000121880700F055FE46F2A810ADF8040086
:100DE00040F2CF20ADF800000020ADF80600ADF8CD
:100DF00002006946134800F0D9FB01221146114850
:100E000000F05AFE01210F4800F03BFE4CF250303A
:100E1000ADF8040040F29F50ADF800000020ADF89E
:100E20000600ADF802006946074800F0BFFB01224A
:100E30001146054800F040FE0121034800F021FE64
:100E40000EBD00000004004000080040704700BFD5
:100E5000FEE700BFFEE700BFFEE700BFFEE770470A
:100E6000704770477047000010B50446F848844248
:100E700008D10121401501F066FC0021601501F048
:100E800062FC17E0F348844208D10121001501F00B
:100E90005AFC0021201501F056FC0BE0EE4884427C
:100EA00008D10121C80301F04EFC00214FF400409D
:100EB00001F049FC10BD30B5024600200023506807
:100EC000E64C20400D790C6844EA0524204350602C
:100ED0009068E34C2040D1E902542C434D7944EA18
:100EE000450420439060D06A20F470000C7C641E9E
:100EF000E4B2234340EA0350D06230BD00210160D8
:100F0000017141718160C16001210174704721B19B
:100F1000826842F00102826003E0826822F00102EE
:100F20008260704721B1826842F48072826003E07F
:100F3000826822F480728260704710B50023CBB2C1
:100F40001AB144681C43446002E044689C43446016
:100F500010BD816841F008018160704701460020A2
:100F60008A6812F0080F01D0012000E000207047CD
:100F7000816841F0040181607047014600208A6861
:100F800012F0040F01D0012000E00020704721B1D1
:100F9000826842F4A002826003E0826822F4A00228
:100FA00082607047014600208A6812F4800F01D0E9
:100FB000012000E00020704710B50A460021002300
:100FC000416821F46041531E41EA4331416010BD44
:100FD00021B1426842F40062426003E0426822F4B8
:100FE000006242607047F0B504460D4600200021C3
:100FF000092D11DDE068A5F10A0606EB4607072674
:1010000006FA07F18843A5F10A0606EB460603FA3D
:1010100006F10843E0600CE0206905EB4507072670
:1010200006FA07F1884305EB450603FA06F1084383
:101030002061072A0FDA606B561E06EB86071F2613
:1010400006FA07F18843561E06EB860605FA06F1F6
:101050000843606322E00D2A0FDA206BD61F06EBEF
:1010600086071F2606FA07F18843D61F06EB860679
:1010700005FA06F10843206310E0E06AA2F10D06CC
:1010800006EB86071F2606FA07F18843A2F10D0634
:1010900006EB860605FA06F10843E062F0BD21B1D1
:1010A000826842F48012826003E0826822F4801237
:1010B000826070470146C86C80B27047694800681A
:1010C000704721B1426842F48062426003E04268A6
:1010D00022F480624260704721B1426842F480523B
:1010E000426003E0426822F48052426070470A4640
:1010F0000021816821F4E04111438160704721B1F2
:10110000826842F40042826003E0826822F4004276
:101110008260704721B1826842F40212826003E06B
:10112000826822F4021282607047014600208A68B9
:1011300012F4001F01D0012000E000207047F0B53C
:1011400004461546002000220026092911DDE0682A
:10115000A1F10A0707EB470C072707FA0CF29043A7
:10116000A1F10A0707EB470703FA07F21043E06013
:101170000CE0206901EB410C072707FA0CF29043C1
:1011800001EB410703FA07F210432061A06BC0F3A3
:101190000156EF1C06F1010CA7EB0C0707EB870CBF
:1011A0001F2707FA0CF29043EF1C06F1010CA7EB86
:1011B0000C0707EB870701FA07F21043A063F0BDA5
:1011C00010B50A4600210023816B21F44011531E03
:1011D00041EA0351816310BD10B5002303460B445F
:1011E0001A6010BD02460023134601F12800034493
:1011F000186880B270470A46002141681A4B1940AE
:101200001143416070474162826270470A46002183
:10121000416821F01F0111434160704738B1134903
:10122000096841F40001124AC2F8081406E00F49A7
:10123000096821F400010E4AC2F8081470470246FA
:10124000002013680B4201D0012000E0002070470D
:101250000024014000280140003C0140FFFEF0FF57
:10126000FDF7F1FF4C240140FFFD3FFF0824014042
:1012700000200140CA430260704770B5024600205A
:10128000002300240B125568CEB205EA0604156847
:101290001D4202D00CB1012000E0002070BD0022F0
:1012A0000A12D34303607047016821F00101016015
:1012B0000021016041608160C1608649884208D197
:1012C00084490839496841F00F01824A083A51605F
:1012D00088E080491431884208D17E49083949683C
:1012E00041F0F0017B4A083A51607BE079492831AE
:1012F000884208D177490839496841F47061754AD4
:10130000083A51606EE073493C31884208D1714916
:101310000839496841F470416E4A083A516061E009
:101320006C495031884208D16A490839496841F40A
:101330007021684A083A516054E066496431884235
:1013400008D164490839496841F47001614A083A92
:10135000516047E05F497831884208D15D490839DA
:10136000496841F070615B4A083A51603AE05A4975
:10137000884208D1A0F10401096841F00F01574AE1
:10138000C2F804142EE054491431884207D154495C
:10139000096841F0F001514AC2F8041422E04E49B4
:1013A0002831884207D14E49096841F470614B4A9F
:1013B000C2F8041416E048493C31884207D1484934
:1013C000096841F47041454AC2F804140AE04249F0
:1013D0005031884206D14249096841F470213F4AA0
:1013E000C2F80414704710B50022026847F6F07383
:1013F0009A430C6A8B6823430C6923434C6923434B
:101400008C692343CC6923434C6A23438C6A23436E
:101410001A430260CB6843600B6883604B68C3600B
:1014200010BD0021016041608160C16001614161C6
:101430008161C161016241628162704721B10268CC
:1014400042F00102026003E0026822F00102026041
:1014500070471AB103680B43036002E003688B43D3
:10146000036070470146486880B27047014600201B
:10147000002211F0805F02D01A4B1A6801E0174B6E
:101480001A680A4201D0012000E00020704710F0E5
:10149000805F02D01249086001E01049486070473F
:1014A00001460020002211F0805F02D00D4B1A6827
:1014B00001E00A4B1A680A4201D0012000E0002036
:1014C000704710F0805F02D00549086001E00349D1
:1014D00048607047080002400804024000000240D3
:1014E000040402400004024010B50446FB48844254
:1014F00008D10121C01401F026F90021E01401F007
:1015000022F952E0B4F1804F08D10121084601F0E0
:1015100027F90021012001F023F946E0F048844238
:1015200008D10121022001F01BF90021022001F065
:1015300017F93AE0EB48844208D10121042001F078
:101540000FF90021042001F00BF92EE0E648844257
:1015500008D10121082001F003F90021082001F041
:10156000FFF822E0E148844208D10121102001F077
:10157000F7F80021102001F0F3F816E0DC4884426F
:1015800008D10121202001F0EBF80021202001F0FA
:10159000E7F80AE0D748844207D10121401401F05E
:1015A000D2F80021601401F0CEF810BD028802F0DC
:1015B0008F020280CA884B881A4303881A4302802C
:1015C0008A8882850A880285C44A904202D0C94A24
:1015D000904201D10A7A028601228282704770B558
:1015E000002400220023058C4FF6FE76354005844A
:1015F000028C8388048B4FF68F752C400D882C430A
:10160000751E2A400D892A434D882A43CD88858638
:10161000B24DA84202D0B74DA84213D14FF6F7758C
:101620002A404D892A434FF6FB752A408D882A436C
:1016300047F6FF652B4047F6FF552B408D892B431E
:10164000CD892B4383800483028470BD70B5002450
:1016500000220023058C4FF6EF7635400584028C7E
:101660008388048B48F6FF752C400D882D0644EACC
:1016700015444FF6DF752A400D892D0542EA1542C3
:101680004D882D0542EA1542CD880587934DA84225
:1016900002D0984DA8421BD14FF67F752A404D8944
:1016A0002D0542EA15424FF6BF752A408D882D055B
:1016B00042EA154247F6FF352B4047F2FF752B40B3
:1016C0008D89AD0443EA1543CD89AD0443EA154342
:1016D00083800483028470BD70B50024002200233F
:1016E000058C4FF6FF6635400584028C8388848B19
:1016F0004FF68F752C400D882C434FF6FF552A402E
:101700000D892D0642EA15424D882D0642EA154202
:10171000CD888587714DA84202D0764DA8421BD155
:101720004FF2FF752A404D892D0642EA15424FF6C9
:10173000FF352A408D882D0642EA154246F6FF7590
:101740002B4045F6FF752B408D892D0543EA154347
:10175000CD892D0543EA154383808483028470BDBF
:1017600070B5002300220024058C4EF6FF7635402C
:101770000584028C8488838B48F6FF752B400D8886
:101780002D0643EA15434DF6FF752A400D892D07B6
:1017900042EA15424D882D0742EA1542CD88A0F84D
:1017A00040504E4DA84202D0524DA84205D1C4F33C
:1017B0000D048D89AD0544EA154484808383028439
:1017C00070BD828B4FF2FF331A408283828B0B06EF
:1017D00042EA134282837047F0B50C461546002159
:1017E00000220026078C4EF6FF7C07EA0C070784D0
:1017F000818B028C27073E0C40F6FF4739402F06AD
:1018000041EA17411F0741EA17414DF6FF773A4079
:1018100046F480573A4381830284F0BD828B4FF6B1
:10182000F3731A408283828B0A4382837047F0B538
:101830000C461546002100220026078C4FF6FF6C4F
:1018400007EA0C070784818B028C27063E0C4FF6B3
:101850000C7739401F0545EA174739434FF6FF57C4
:101860003A4046F480773A4381830284F0BD028B8C
:101870004FF2FF331A400283028B0B0642EA1342F7
:1018800002837047F0B50C46154600210022002661
:10189000078C4FF6EF7C07EA0C070784018B028C5C
:1018A00027053E0C40F6FF4739401F0741EA174124
:1018B0002F0641EA17414FF6DF773A4046F010070E
:1018C0003A4301830284F0BD028B4FF6F3731A4052
:1018D0000283028B0A43028370470000002C014000
:1018E0000004004000080040000C004000100040D0
:1018F0000014004000340140F0B50C4615460021AC
:101900000022068C4FF6FE773E400684018B028C47
:101910004FF60C7631401E0545EA164631437E1ED1
:10192000324044F00106324301830284F0BD70B5B9
:1019300005460C46208850B92389A288618828462C
:10194000FFF7DAFFE1882846FFF7BEFF25E0208891
:1019500004280AD12389A28861882846FFF792FFCC
:10196000E1882846FFF783FF17E0208808280AD17E
:101970002389A28861882846FFF759FFE188284615
:10198000FFF74CFF09E02389A28861882846FFF70A
:1019900023FFE1882846FFF714FF70BD2DE9F041D1
:1019A00005460C4600260127608808B9022600E09B
:1019B0000026A088012801D1022700E00127208805
:1019C000A0B92389A28861882846FFF795FFE1889E
:1019D0002846FFF779FF23893A4631462846FFF724
:1019E00051FFE1882846FFF742FF13E02389A288D0
:1019F00061882846FFF746FFE1882846FFF737FF52
:101A000023893A4631462846FFF776FFE188284683
:101A1000FFF75AFFBDE8F0810A884B881A438B888C
:101A20001A43CB881A430B891A434B891A438B8973
:101A30001A43A0F8442070474FF6FF7181800021BF
:101A40000180C18041800172704700210180418086
:101A50008180C180018141818181C18170470021E4
:101A600001804180012181800021C1800181704776
:101A70000021018041808180C1800181418181817B
:101A8000704721B1028842F00102028004E002881E
:101A900040F2FE331A400280704731B1B0F8442062
:101AA00042F40042A0F8442005E0B0F84420C2F31C
:101AB0000E02A0F84420704710B51AB183890B4379
:101AC000838104E08389CC43A4B22340838110BD89
:101AD0008182704741EA0203A0F84830704710B590
:101AE0001AB183890B43838104E08389CC43A4B278
:101AF0002340838110BD01894FF6F87211400181A6
:101B000070470A46002101894FF68F73194011432F
:101B10000181704730B504460D4629462046FFF73F
:101B2000F0FF208940F00700208130BD2DE9F04111
:101B300004460D4616461F46602D06D13B4601223F
:101B400031462046FFF79EFE05E03B460122314626
:101B50002046FFF7D1FE29462046FFF7D2FF208915
:101B600040F007002081BDE8F08130B50C4600212F
:101B70000189C9B21D0642EA154525432943018161
:101B800030BD2DE9F04105460E4617469846002423
:101B900043463A4631462846FFF7E7FF2C894FF681
:101BA000F8710C4044F007044FF68F710C4044F07C
:101BB00070042C81BDE8F081F0B504460D46164650
:101BC0001F463B46324629462046FFF7CEFF208976
:101BD00040F480402081F0BD0185828270470A4632
:101BE0000021018840F28F33194011430180704772
:101BF000F0B50C4615461E4600210022002301893F
:101C0000028B038C4FF6F877394021434FF6FC479F
:101C10003A4040F201173A434FF6DD773B40370533
:101C200045EA17473B43018102830384F0BD0A461E
:101C30000021018B4FF68F731940114301837047C8
:101C40000A460021018B48F6FF731940130641EA4A
:101C50001341018370470A460021818B4FF68F7331
:101C600019401143818370470A460021818B48F651
:101C7000FF731940130641EA13418183704721B174
:101C8000028842F08002028004E0028840F27F3342
:101C90001A400280704721B1828842F0040282809B
:101CA00004E082884FF6FB731A408280704721B1AE
:101CB000828842F00802828004E082884FF6F7733F
:101CC0001A408280704721B1828842F001028280EE
:101CD00004E082884FF6FE731A40828070470A46FD
:101CE0000021018B4FF6F7731940114301837047B0
:101CF0000A460021018B4FF2FF731940130641EA97
:101D00001341018370470A460021818B4FF6F77318
:101D100019401143818370470A460021818B4FF29D
:101D2000FF731940130641EA1341818370470A4645
:101D30000021018B4FF6FB7319401143018370475B
:101D40000A460021018B4FF6FF331940130641EA82
:101D50001341018370470A460021818B4FF6FB73C4
:101D600019401143818370470A460021818B4FF649
:101D7000FF331940130641EA1341818370470A4635
:101D80000021018B4FF67F73194011430183704787
:101D90000A460021018BC1F30E01130641EA1341EB
:101DA000018370470A460021818B4FF67F731940EB
:101DB0001143818370470A460021818BC1F30E01D4
:101DC000130641EA1341818370470A460021018CC2
:101DD0004FF6FD7319401143018470470A460021F4
:101DE000018C4FF6F77319401143018470470A467E
:101DF0000021018C4FF6DF731940130541EA1341AE
:101E0000018470470A460021018C4FF67F73194008
:101E1000130541EA1341018470470A460021018CF1
:101E20004FF6FF531940130641EA134101847047EE
:101E30000A460021018C4FF2FF731940130641EA54
:101E40001341018470470A460021018C4DF6FF734F
:101E50001940130741EA13410184704730B500234C
:101E600001248C40A3B2048CDD43ADB22C40048429
:101E7000048C02FA01F5ADB22C43048430BD30B5B8
:101E8000002304248C40A3B2048CDD43ADB22C406B
:101E90000484048C02FA01F5ADB22C43048430BDF5
:101EA00070B50346002000241846183001258D40E7
:101EB000ACB21D8CE643B6B235401D8409B1082989
:101EC0000AD100EB610005684FF68F76354005605A
:101ED0000568154305600DE00D1FADB200EB650010
:101EE000056848F6FF76354005600568160645EA40
:101EF0001645056070BD21B1028842F002020280E1
:101F000004E0028840F2FD331A400280704721B19C
:101F1000028842F00402028004E0028840F2FB33AF
:101F20001A400280704721B1828842F0800282808C
:101F300004E082884FF67F731A40828070470288DF
:101F400040F2F7331A40028002880A430280704749
:101F500082884FF68F731A40828082880A4382807B
:101F6000704702894FF6F8731A40028102890A43CA
:101F70000281704702894FF67F731A4002810289FD
:101F80000A4302817047818470478185704781864A
:101F900070470187704781877047A0F840107047ED
:101FA0000288D2B2028002880A430280704701464A
:101FB000888E70470146088F70470146888F7047AA
:101FC0000146B1F8400070470146888C70470146D1
:101FD000088D704702460020138A0B4201D0012071
:101FE00000E000207047CA430282704730B50246C5
:101FF000002000230024158A05EA0103958905EADB
:10200000010413B10CB1012000E0002030BDCA432F
:102010000282704736490143364A1160704770B5F5
:10202000002100230F22C4784CB3324C246804F4FE
:10203000E064C4F5E0644FEA1421C1F1040322FA1C
:1020400001F2447804FA03F1847804EA020444EAD1
:1020500001014FEA0111284C0678A155047804F0DB
:102060001F054FF0010404FA05F405784FEA6515E1
:102070004FF0E02606EB8505C5F8004109E004783D
:1020800004F01F050124AC401C4D0678761145F87C
:10209000264070BD1A4A0A4002431A4B1A60704724
:1020A00041B1194A126842EA00024FF0E023C3F836
:1020B000102D07E0144A126822EA00024FF0E023D4
:1020C000C3F8102D7047042808D14FF0E0210969AA
:1020D00041F004014FF0E022116107E04FF0E021F0
:1020E000096921F004014FF0E022116170470000FE
:1020F0000000FA050CED00E000E400E080E100E003
:1021000080FFFF1F08ED00E010ED00E010B5044671
:10211000C248844208D10121042000F014FB0021B0
:10212000042000F010FB46E0BD48844208D10121A4
:10213000082000F008FB0021082000F004FB3AE032
:10214000B848844208D10121102000F0FCFA002197
:10215000102000F0F8FA2EE0B348844208D10121A3
:10216000202000F0F0FA0021202000F0ECFA22E01C
:10217000AE48844208D10121402000F0E4FA002159
:10218000402000F0E0FA16E0A948844208D101217D
:10219000802000F0D8FA0021802000F0D4FA0AE074
:1021A000A448844207D10121801500F0CCFA002117
:1021B000A01500F0C8FA10BD10B50121084600F0C6
:1021C000C2FA0021012000F0BEFA10BD2DE9F04155
:1021D000024600250026002000230024002791F855
:1021E00003C00CF00F0591F803C01CF0100F03D0D2
:1021F00091F802C04CEA0505B1F800C01CF0FF0FD1
:1022000031D0146800202BE04FF0010C0CFA00F3E1
:10221000B1F800C00CEA03069E4220D183004FF0C3
:102220000F0C0CFA03F7BC4305FA03FC4CEA040458
:1022300091F803C0BCF1280F06D14FF0010C0CFA45
:1022400000FCC2F814C00AE091F803C0BCF1480FCA
:1022500005D14FF0010C0CFA00FCC2F810C0401C74
:102260000828D1D31460B1F800C0BCF1FF0F34DDF1
:10227000546800202EE000F1080C4FF0010808FA25
:102280000CF3B1F800C00CEA03069E4221D1830092
:102290004FF00F0C0CFA03F7BC4305FA03FC4CEAB1
:1022A000040491F803C0BCF1280F05D100F1080C1B
:1022B00008FA0CF8C2F8148091F803C0BCF1480F7A
:1022C00007D100F1080C4FF0010808FA0CF8C2F829
:1022D0001080401C0828CED35460BDE8F0814FF632
:1022E000FF710180022181700421C1707047024694
:1022F000002093680B4201D0012000E000207047CD
:102300000146886880B2704702460020D3680B42BD
:1023100001D0012000E0002070470146C86880B26B
:10232000704701617047416170470AB1016100E087
:1023300041617047C16070474FF480320A43826147
:1023400081618261826982697047024600203A4B4E
:1023500018684FF68073184040EA02100843364B65
:10236000186070473549C8617047F0B50A460023C8
:10237000002400210025304E7168C0F3034583B26C
:1023800000F44016B6F5401F08D121F070612A4EC6
:10239000766826F07066284F7E6012E000F48016A2
:1023A000B6F5801F06D1032606FA05F4A14341F0D5
:1023B000706106E0460D360103FA06F6B14341F0BE
:1023C000706122B1460D360103FA06F631431A4E0A
:1023D0007160F0BD30B500228B071C0F0F2303FA8C
:1023E00004F2154B08338C1053F824309343124CED
:1023F00008348D1044F8253023468C1053F82430CF
:102400008C07240F00FA04F423430B4C08348D107E
:1024100044F8253030BD0A49086070470008014083
:10242000000C014000100140001401400018014060
:10243000001C01400020014000000140000020423B
:10244000DC002042DB48006840F00100D949086008
:1024500008464068D8490840D649486008460068A0
:10246000D6490840D34908600846006820F4802017
:1024700008600846406820F4FE0048604FF41F00E2
:1024800088607047CB49096821F48031C94A1160DE
:102490001146096821F480211160B0F5803F03D016
:1024A000B0F5802F0ED106E0C249096841F48031B1
:1024B000C04A116007E0BF49096841F4A021BD4A44
:1024C000116000E000BF00BF704710B50146002258
:1024D000002300204A11012A02D1B64C236806E0ED
:1024E000022A02D1B34C236A01E0B24C636A01F0C4
:1024F0001F02012494401C4201D0012000E0002072
:1025000010BD70B500240025002600BF3120FFF764
:10251000DCFF0646641CB4F5A06F01D0002EF5D098
:102520003120FFF7D2FF08B1012500E00025284641
:1025300070BD014600209F4A106820F0F80040EA74
:10254000C100106070479E49086070470246002035
:10255000984B586820F47C1042EA01031843954BCD
:102560005860704796490866704701460020914AB6
:10257000506820F003000843506070478D48406861
:1025800000F00C007047014600208A4A506820F095
:10259000F00008435060704701460020854A5068AB
:1025A00020F4E06008435060704701460020814AF3
:1025B000506820F4605040EAC1005060704729B173
:1025C0007C4A527A02437B4B5A7206E0794A527A2D
:1025D000C343DBB21A40774B5A727047794908609F
:1025E000704701460020734A506820F44040084379
:1025F000506070470021744A11706E4A82F82010B2
:10260000012802D0042808D103E001216E4A11708C
:1026100004E005216C4A117000E000BF00BF704764
:102620006A49086070476349096A0143614A116257
:10263000704767490860704730B5002100220024C8
:1026400000235C4D6D6805F00C0121B1042905D013
:10265000082923D105E05F4D056022E05D4D05604E
:102660001FE0544D6D6805F47012524D6D6805F40D
:102670008034022505EB92421CB9574D5543056045
:102680000BE04C4D6D6815F4003F03D0524D55439F
:10269000056002E04F4D5543056002E04D4D056079
:1026A00000BF00BF434D6D6805F0F00109094B4DB7
:1026B0006B5C0568DD4045603E4D6D6805F4E0618A
:1026C000090A464D6B5C4568DD408560394D6D6893
:1026D00005F46051C90A414D6B5C4568DD40C56039
:1026E000344D6D6805F44041890B3D4D6B5CC56808
:1026F000B5FBF3F5056130BD29B12E4A526902439D
:102700002C4B5A6104E02B4A52698243294B5A618F
:10271000704729B1274A92690243264B9A6104E027
:10272000244A92698243234B9A61704729B1214A16
:10273000D26902431F4BDA6104E01E4AD269824328
:102740001C4BDA61704729B11A4AD2680243194B0F
:10275000DA6004E0174AD2688243164BDA607047A9
:1027600029B1144A12690243124B1A6104E0114A5A
:10277000126982430F4B1A6170471A49086070470B
:102780000F49C86470470B49C87170470948406ACF
:1027900040F0807007494862704701460020054AB2
:1027A00092680A4201D0012000E0002070470149F0
:1027B00088727047001002400000FFF8FFFFF6FE2D
:1027C00000004242D80042422010024080044242AF
:1027D0003C04424200127A0000093D00160000202D
:1027E000260000204004424210B50446E3488442DB
:1027F00009D101218803FFF7A6FF00214FF4804093
:10280000FFF7A1FF32E0DE48844209D101214804EC
:10281000FFF7A6FF00214FF40030FFF7A1FF25E0EE
:10282000D848844209D101218804FFF799FF00218B
:102830004FF48020FFF794FF18E0D348844209D179
:102840000121C804FFF78CFF00214FF40020FFF79F
:1028500087FF0BE0CD48844208D101210805FFF72E
:102860007FFF00214FF48010FFF77AFF10BD2DE9A4
:10287000F04786B005460E460024A24600BF00BFC2
:102880000027B08900B100BF2F462C8A4CF6FF709C
:102890000440F08804432C82AC894EF6F3100440C7
:1028A000B08831890843718908430443AC81AC8AFC
:1028B0004FF6FF400440B0890443AC8201A8FFF703
:1028C000BBFEAE48874202D1DDF810A001E0DDF882
:1028D0000CA00AEBCA0000EB0A1031688900B0FBBB
:1028E000F1F86420B8FBF0F004012009642101FB39
:1028F0001089322000EB0910B0FBF1F000F00F005E
:1029000004432C8106B0BDE8F0874FF416510160F6
:1029100000218180C18001810C21418100218181C0
:10292000704710B502460020108A4FF2FF0318408E
:102930000B884C8823438C882343CC88234318433B
:10294000108210BD0021018041808180C1807047CC
:1029500021B1828942F40052828104E082894DF6DD
:10296000FF731A4082817047F0B5034600240026A9
:1029700000250020A1F510676A3F00D100BF18466E
:10298000C1F3421401F01F06012707FA06F5012CD6
:1029900001D10C3004E0022C01D1103000E01430E1
:1029A0001AB107682F43076002E00768AF4307606A
:1029B000F0BD10B51AB1838A0B43838204E0838A89
:1029C000CC43A4B22340838210BD028A4FF6F07339
:1029D0001A400282028A0A430282704782894FF2B9
:1029E000FF731A40828182890A438281704721B134
:1029F000828942F00202828104E082894FF6FD73EF
:102A00001A4082817047028A4FF6DF731A400282B1
:102A1000028A0A430282704721B1028A42F480424C
:102A2000028204E0028A4BF6FF731A40028270476A
:102A3000C1F308028280704701468888C0F308000D
:102A40007047818941F0010181817047028BD2B2C8
:102A50000283028B42EA012202837047028B02F456
:102A60007F420283028B0A430283704721B1828A2C
:102A700042F02002828204E0828A4FF6DF731A401D
:102A80008282704721B1828A42F01002828204E081
:102A9000828A4FF6EF731A408282704721B1828A90
:102AA00042F00802828204E0828A4FF6F7731A40ED
:102AB00082827047828A4FF6FB731A408282828A32
:102AC0000A438282704721B1828A42F002028282E6
:102AD00004E0828A4FF6FD731A40828270470246F4
:102AE0000020B1F5007F00D100BF13880B4201D058
:102AF000012000E00020704701F40072B2F5007F71
:102B000000D100BFCA430280704770B5024600245E
:102B1000002300250020A1F510666A3E00D100BF09
:102B2000C1F3421501F01F03012606FA03F3012D3C
:102B300002D19689334006E0022D02D1168A334035
:102B400001E0968A33400C12012606FA04F4168836
:102B5000344013B10CB1012000E0002070BD10B56D
:102B600000220023A1F510646A3C00D100BF0A12C4
:102B700001249440A3B2DC43048010BD003801401E
:102B80000044004000480040004C0040005000401D
:102B9000704700000FB4044910B503AA029800F072
:102BA00055F910BC5DF814FB1000002070B5044608
:102BB000856900683026C10600D42026C00708D0E9
:102BC00070BDD4E9012130469047206A00F1010030
:102BD00020626D1EF5D570BD70B50446856900682C
:102BE000C00708D170BDD4E9012120209047206A98
:102BF00000F1010020626D1EF5D570BD2DE9F04198
:102C00008046002610687529414615A512D0AFF3FD
:102C10000080002803DAC0F1000012A508E0D8F80F
:102C200000108A0701D510A502E0490704D50FA5B9
:102C3000012601E0AFF30080002408F1240704E03E
:102C400000F016F930313955641C0028F8D13346AC
:102C50002A4621464046BDE8F04100F09CB80000FD
:102C6000000000002D0000002B00000020000000EC
:102C70002DE9F05F4FF0000B044689464FF0010A42
:102C8000C0F820B02046E168884798B3252806D0D0
:102C9000D4E901219047206A401C2062F2E7E168F4
:102CA000204600268847C4F81CB005460027C4F813
:102CB00018B02A2D0DD05246A5F130010A292ED286
:102CC000BAF1000F2BD0924604EB8708C8F8181011
:102CD0001AE059F8041B204604EB87029161E16871
:102CE0008847012F05461CD1E069002824DA26F028
:102CF000200621E048E0D8F8180000EB800005EB42
:102D000040003038C8F818002046E1688847A0F134
:102D1000300105460A2902D2BAF1000FEBD1012F8A
:102D20000AD02E2D08D12046E16888477F1C054631
:102D3000022F46F02006BCDBA069002803DA4042DF
:102D400046F00106A061F00701D026F01006DDB1C3
:102D5000A5F14100192802D8203546F400664A46FC
:102D60002946204626604E46FDF71CFA50B1012840
:102D700005D0F61D26F0070000F1080982E706F1EC
:102D800004097FE7284683E7206ABDE8F09F704783
:102D90007047704770472DE9F0470D46044692464C
:102DA000994600F124080168880604D5E06921F0FD
:102DB0001001216000E001200027A84201DDA0EB06
:102DC0000507A16907EB050202EB0300A1EB000078
:102DD000A0612068C00602D42046FFF7E7FE002667
:102DE00008E0D4E901211AF806009047206A401C47
:102DF000761C20624E45F4DB2068C0060AD52046CA
:102E0000FFF7D4FE06E0D4E9012130209047206A84
:102E1000401C2062381EA7F10107F4DC07E0D4E96A
:102E2000012118F805009047206A401C2062281EE6
:102E3000A5F10105F3DC2046FFF7CEFE2168022054
:102E4000090600D40120BDE8F0870000074B70B5EB
:102E50000C467B4400F019F80546204600F028F89F
:102E600010B14FF0FF3070BD284670BDE9D7FFFFAD
:102E70004FF00A01B0FBF1F202FB1101104670475E
:102E800001694A1C02610878704700B58FB0CDE92E
:102E900001310021059105497944CDE9031011461E
:102EA0006846FFF7E5FE0FB000BD0000E5FFFFFF3D
:102EB000C06800F080007047754600F029F8AE4603
:102EC00005006946534620F00700854618B020B536
:102ED000FDF726FABDE820404FF000064FF000074E
:102EE0004FF000084FF0000B21F00701AC46ACE8B2
:102EF000C009ACE8C009ACE8C009ACE8C0098D461F
:102F000070470446AFF300802046FDF75FF90000EC
:102F1000004870472C00002001487047704700BFF0
:102F20003000002010B5FFF7F7FF4FF000010160FF
:102F300010BD0000542F0008000000202C000000ED
:102F40006C010008802F00082C000020640800009D
:102F500088010008000000000000000000000000E0
:102F6000000000000000000000000000000001025E
:102F7000030401020304060708090204060800000E
:0400000508000131BD
:00000001FF
