:020000040800F2
:1000000000040020FF020008510500085305000805
:10001000570500085B0500085F05000800000000A8
:100020000000000000000000000000006305000860
:100030006505000800000000670500086905000864
:100040001F0300081F0300081F0300081F03000808
:100050001F0300081F0300081F0300081F030008F8
:100060001F0300081F0300081F0300081F030008E8
:100070001F0300081F0300081F0300081F030008D8
:100080001F0300081F0300081F0300081F030008C8
:100090001F0300081F0300081F0300081F030008B8
:1000A0001F0300081F0300081F0300081F030008A8
:1000B0001F0300081F0300081F0300081F03000898
:1000C0001F0300081F0300081F0300081F03000888
:1000D0001F030008110500081F0300081F03000884
:1000E0001F0300081F0300081F0300081F03000868
:1000F0001F0300081F0300081F0300081F03000858
:100100001F0300081F0300081F0300081F03000847
:100110001F0300081F0300081F0300081F03000837
:100120001F0300081F0300081F0300081F03000827
:1001300000F002F800F041F80AA090E8000C8244B8
:100140008344AAF10107DA4501D100F036F8AFF295
:10015000090EBAE80F0013F0010F18BFFB1A43F0A5
:10016000010318470014000020140000103A24BFB7
:1001700078C878C1FAD8520724BF30C830C144BF0C
:1001800004680C607047000000230024002500264E
:10019000103A28BF78C1FBD8520728BF30C148BFEA
:1001A0000B607047642901F0D180002070471FB5B3
:1001B00001F0D0F91FBD10B510BD01F095F9114641
:1001C000FFF7F5FF00F0FEF801F0B3F903B4FFF715
:1001D000F2FF03BC00F030F900210020434A12680E
:1001E00042F48032414B1A6000BF404A126802F468
:1001F0000030491C10B9B1F5A06FF6D13B4A126826
:1002000012F4003F01D0012000E00020012843D17A
:10021000374A126842F01002354B1A601A461268CB
:1002200022F003021A601A46126842F002021A60B3
:100230002E4A52682D4B5A601A4652685A601A4626
:10024000526842F480625A601A46526822F47C1264
:100250005A601A46526842F4E8125A601A46126806
:1002600042F080721A6000BF204A126812F0007FCC
:10027000FAD01E4A526822F003021C4B5A601A46FA
:10028000526842F002025A6000BF184A526802F0F7
:100290000C02082AF9D101E000BFFEE7704710B553
:1002A000FFF79AFF10BD10B51048006840F001003C
:1002B0000E490860084640680E4908400B494860EE
:1002C000084600680C49084008490860084600686C
:1002D00020F4802008600846406820F4FE00486052
:1002E0004FF41F008860FFF7DAFF10BD00100240D6
:1002F000002002400000FFF8FFFFF6FE70470B48A9
:1003000080470B4981F308880A480047FEE7FEE76B
:10031000FEE7FEE7FEE7FEE7FEE7FEE7FEE7FEE7B5
:1003200005480649064A074B70470000FD020008D1
:1003300078080020310100087800002078080020AB
:100340007804002078040020002109E0002201E068
:10035000531C9AB242F614039A42F9DB4B1C99B231
:100360008142F3DB704708B501214FF4A07000F023
:100370006AFD4FF48040ADF8000010208DF80300B6
:1003800003208DF802006946274800F0B9FA08BD3D
:1003900008B500214FF0006000F016FA4FF4A0609D
:1003A00000F0D2F925208DF8000002208DF8010020
:1003B00000208DF8020001208DF80300684600F04F
:1003C000C8F908BDFFF76FFFFFF7E2FFFFF7CBFFAC
:1003D00000F060F84FF4E13000F07CF800F009F92B
:1003E00000F021F900F048F900F06FF90FA000F0DB
:1003F00096F90AE00E4800686FEA00000D49C1F85E
:10040000B8014FF0C800FFF79FFFF3E7002107E0B6
:10041000002201E0531C9AB2092AFBDB4B1C99B263
:100420008142F5DB7047000000200140CCD700007E
:10043000B801244200002442014600BF704770B555
:1004400004460D4600BF80213D4800F0E2FE002832
:10045000F9D0A1B23A4800F085FE204670BD10B533
:10046000044600BF8021364800F0D3FE0028F9D0B2
:100470002146334800F076FE10BD10B500BF2021A4
:100480002F4800F0C6FE0028F9D02D4800F06EFE7F
:10049000C0B210BD08B5012144F2040000F0D3FC45
:1004A0004FF40070ADF8000018208DF80300032011
:1004B0008DF802006946234800F022FA4FF480606C
:1004C000ADF8000004208DF8030069461D4800F0D7
:1004D00017FA08BD1FB5044600940020ADF80400CB
:1004E000ADF80600ADF80800ADF80C000C20ADF832
:1004F0000A006946124800F054FD012240F22551DD
:100500000F4800F0CBFD01210D4800F0BBFD1FBDE1
:1005100010B540F225510A4800F091FE40F22551F5
:10052000074800F0B6FE064800F020FEC4B221469F
:1005300005A000F0C9FE05A000F0C6FE10BD000039
:100540000038014000080140256400000A0D000049
:10055000704700BFFEE700BFFEE700BFFEE700BF39
:10056000FEE770477047704770470000002109E0C0
:10057000002201E0531C9AB242F614039A42F9DBBE
:100580004B1C99B28142F3DB7047002107E0002247
:1005900001E0531C9AB2092AFBDB4B1C99B2814241
:1005A000F5DB704708B510208DF8030003208DF8A7
:1005B000020040F6FF70ADF800000121202000F09D
:1005C00042FC69465D4800F09BF908BD08B504206F
:1005D0008DF8030003208DF80200FF20ADF8000025
:1005E0000121202000F02FFC6946544800F088F9D2
:1005F00008BD10B5FFF7EAFF4FF480714F4800F0D7
:100600002CFA4FF400714D4800F025FA4FF4806148
:100610004A4800F020FA4FF48061484800F01DFA83
:10062000FFF7C0FF10BD10B50446FFF7E2FF4FF41F
:100630008071424800F011FA4FF400713F4800F019
:100640000CFA4FF480613D4800F005FA3C48006820
:1006500000F47F4040EA04003A49C1F80C044FF02E
:100660000200FFF783FF4FF48061344800F0F5F992
:100670000220FFF77BFF10BD10B50446FFF7B9FF5E
:100680004FF480712D4800F0E6F94FF400712B48CB
:1006900000F0E3F94FF48061284800F0DCF92848C5
:1006A000006800F47F4040EA04002649C1F80C04C9
:1006B0004FF00200FFF75AFF4FF480611F4800F02F
:1006C000CCF90220FFF752FF10BD10B5FFF76AFF0B
:1006D0004FF40061194800F0BEF90220FFF746FF11
:1006E0003020FFF7A0FF0220FFF740FF0C20FFF7AC
:1006F0009AFF0220FFF73AFF0120FFF794FF022044
:10070000FFF734FF0620FFF78EFF0220FFF72EFFD2
:100710008020FFF788FF0220FFF728FF10BD10B5EB
:10072000044606E02078FFF7A7FF641C0220FFF7CD
:100730001DFF20780028F5D110BD000000140140F5
:100740000C1401400010014036490143364A116043
:10075000704770B5002100230F22C4784CB3324C8F
:10076000246804F4E064C4F5E0644FEA1421C1F1A4
:10077000040322FA01F2447804FA03F1847804EACB
:10078000020444EA01014FEA0111284C0678A15500
:10079000047804F01F054FF0010404FA05F405780D
:1007A0004FEA65154FF0E02606EB8505C5F80041D8
:1007B00009E0047804F01F050124AC401C4D0678C4
:1007C000761145F8264070BD1A4A0A4002431A4B7A
:1007D0001A60704741B1194A126842EA00024FF0AC
:1007E000E023C3F8102D07E0144A126822EA000241
:1007F0004FF0E023C3F8102D7047042808D14FF0C4
:10080000E021096941F004014FF0E022116107E0A5
:100810004FF0E021096921F004014FF0E02211615D
:10082000704700000000FA050CED00E000E400E075
:1008300080E100E080FFFF1F08ED00E010ED00E028
:1008400010B50446C248844208D10121042000F0BA
:1008500014FB0021042000F010FB46E0BD48844258
:1008600008D10121082000F008FB0021082000F039
:1008700004FB3AE0B848844208D10121102000F07E
:10088000FCFA0021102000F0F8FA2EE0B348844270
:1008900008D10121202000F0F0FA0021202000F0F2
:1008A000ECFA22E0AE48844208D10121402000F059
:1008B000E4FA0021402000F0E0FA16E0A948844262
:1008C00008D10121802000F0D8FA0021802000F01A
:1008D000D4FA0AE0A448844207D10121801500F02F
:1008E000CCFA0021A01500F0C8FA10BD10B5012106
:1008F000084600F0C2FA0021012000F0BEFA10BD47
:100900002DE9F041024600250026002000230024A6
:10091000002791F803C00CF00F0591F803C01CF0FC
:10092000100F03D091F802C04CEA0505B1F800C0E1
:100930001CF0FF0F31D0146800202BE04FF0010CA9
:100940000CFA00F3B1F800C00CEA03069E4220D175
:1009500083004FF00F0C0CFA03F7BC4305FA03FCBD
:100960004CEA040491F803C0BCF1280F06D14FF003
:10097000010C0CFA00FCC2F814C00AE091F803C0A4
:10098000BCF1480F05D14FF0010C0CFA00FCC2F885
:1009900010C0401C0828D1D31460B1F800C0BCF1CD
:1009A000FF0F34DD546800202EE000F1080C4FF0FA
:1009B000010808FA0CF3B1F800C00CEA03069E42E5
:1009C00021D183004FF00F0C0CFA03F7BC4305FA5A
:1009D00003FC4CEA040491F803C0BCF1280F05D1D4
:1009E00000F1080C08FA0CF8C2F8148091F803C062
:1009F000BCF1480F07D100F1080C4FF0010808FACC
:100A00000CF8C2F81080401C0828CED35460BDE812
:100A1000F0814FF6FF710180022181700421C170C5
:100A200070470246002093680B4201D0012000E08D
:100A3000002070470146886880B270470246002057
:100A4000D3680B4201D0012000E00020704701462E
:100A5000C86880B2704701617047416170470AB150
:100A6000016100E041617047C16070474FF480321E
:100A70000A438261816182618269826970470246AC
:100A800000203A4B18684FF68073184040EA021075
:100A90000843364B186070473549C8617047F0B558
:100AA0000A460023002400210025304E7168C0F35F
:100AB000034583B200F44016B6F5401F08D121F07B
:100AC00070612A4E766826F07066284F7E6012E0CC
:100AD00000F48016B6F5801F06D1032606FA05F449
:100AE000A14341F0706106E0460D360103FA06F6B7
:100AF000B14341F0706122B1460D360103FA06F6AA
:100B000031431A4E7160F0BD30B500228B071C0FC7
:100B10000F2303FA04F2154B08338C1053F82430DA
:100B20009343124C08348D1044F8253023468C1022
:100B300053F824308C07240F00FA04F423430B4CA1
:100B400008348D1044F8253030BD0A4908607047DC
:100B500000080140000C0140001001400014014059
:100B600000180140001C014000200140000001402D
:100B700000002042DC002042DB48006840F0010019
:100B8000D949086008464068D8490840D6494860B5
:100B900008460068D6490840D349086008460068FE
:100BA00020F4802008600846406820F4FE00486079
:100BB0004FF41F0088607047CB49096821F48031E9
:100BC000C94A11601146096821F480211160B0F50D
:100BD000803F03D0B0F5802F0ED106E0C2490968EE
:100BE00041F48031C04A116007E0BF49096841F40F
:100BF000A021BD4A116000E000BF00BF704710B5E2
:100C000001460022002300204A11012A02D1B64CDD
:100C1000236806E0022A02D1B34C236A01E0B24CF9
:100C2000636A01F01F02012494401C4201D001209C
:100C300000E0002010BD70B500240025002600BF94
:100C40003120FFF7DCFF0646641CB4F5A06F01D02D
:100C5000002EF5D03120FFF7D2FF08B1012500E0CA
:100C60000025284670BD014600209F4A106820F0EC
:100C7000F80040EAC100106070479E490860704764
:100C800002460020984B586820F47C1042EA010389
:100C90001843954B5860704796490866704701465F
:100CA0000020914A506820F00300084350607047CC
:100CB0008D48406800F00C007047014600208A4AC9
:100CC000506820F0F0000843506070470146002053
:100CD000854A506820F4E060084350607047014640
:100CE0000020814A506820F4605040EAC100506002
:100CF000704729B17C4A527A02437B4B5A7206E014
:100D0000794A527AC343DBB21A40774B5A72704722
:100D100079490860704701460020734A506820F402
:100D200040400843506070470021744A11706E4A79
:100D300082F82010012802D0042808D103E0012104
:100D40006E4A117004E005216C4A117000E000BF8A
:100D500000BF70476A49086070476349096A0143E8
:100D6000614A1162704767490860704730B50021D9
:100D70000022002400235C4D6D6805F00C0121B1B8
:100D8000042905D0082923D105E05F4D056022E044
:100D90005D4D05601FE0544D6D6805F47012524DB5
:100DA0006D6805F48034022505EB92421CB9574D5D
:100DB000554305600BE04C4D6D6815F4003F03D0C2
:100DC000524D5543056002E04F4D5543056002E02A
:100DD0004D4D056000BF00BF434D6D6805F0F0014B
:100DE00009094B4D6B5C0568DD4045603E4D6D6803
:100DF00005F4E061090A464D6B5C4568DD4085609D
:100E0000394D6D6805F46051C90A414D6B5C456808
:100E1000DD40C560344D6D6805F44041890B3D4DA2
:100E20006B5CC568B5FBF3F5056130BD29B12E4A91
:100E3000526902432C4B5A6104E02B4A52698243A7
:100E4000294B5A61704729B1274A92690243264BC0
:100E50009A6104E0244A92698243234B9A61704765
:100E600029B1214AD26902431F4BDA6104E01E4ACC
:100E7000D26982431C4BDA61704729B11A4AD268A1
:100E80000243194BDA6004E0174AD2688243164BDA
:100E9000DA60704729B1144A12690243124B1A6191
:100EA00004E0114A126982430F4B1A6170471A49D4
:100EB000086070470F49C86470470B49C871704794
:100EC0000948406A40F0807007494862704701460F
:100ED0000020054A92680A4201D0012000E000206B
:100EE0007047014988727047001002400000FFF807
:100EF000FFFFF6FE00004242D800424220100240AE
:100F0000800442423C04424200127A0000093D0043
:100F100004000020140000204004424210B50446A2
:100F2000E348844209D101218803FFF7A6FF00218D
:100F30004FF48040FFF7A1FF32E0DE48844209D140
:100F400001214804FFF7A6FF00214FF40030FFF70E
:100F5000A1FF25E0D848844209D101218804FFF788
:100F600099FF00214FF48020FFF794FF18E0D34849
:100F7000844209D10121C804FFF78CFF00214FF4FE
:100F80000020FFF787FF0BE0CD48844208D1012104
:100F90000805FFF77FFF00214FF48010FFF77AFF6D
:100FA00010BD2DE9F04786B005460E460024A24646
:100FB00000BF00BF0027B08900B100BF2F462C8AB8
:100FC0004CF6FF700440F08804432C82AC894EF646
:100FD000F3100440B0883189084371890843044301
:100FE000AC81AC8A4FF6FF400440B0890443AC8228
:100FF00001A8FFF7BBFEAE48874202D1DDF810A082
:1010000001E0DDF80CA00AEBCA0000EB0A10316821
:101010008900B0FBF1F86420B8FBF0F0040120096E
:10102000642101FB1089322000EB0910B0FBF1F0C4
:1010300000F00F0004432C8106B0BDE8F0874FF4A8
:101040001651016000218180C18001810C21418104
:1010500000218181704710B502460020108A4FF2AE
:10106000FF0318400B884C8823438C882343CC888B
:1010700023431843108210BD0021018041808180EC
:10108000C180704721B1828942F40052828104E01C
:1010900082894DF6FF731A4082817047F0B503468E
:1010A0000024002600250020A1F510676A3F00D12A
:1010B00000BF1846C1F3421401F01F06012707FACA
:1010C00006F5012C01D10C3004E0022C01D11030C6
:1010D00000E014301AB107682F43076002E0076888
:1010E000AF430760F0BD10B51AB1838A0B4383820A
:1010F00004E0838ACC43A4B22340838210BD028AD9
:101100004FF6F0731A400282028A0A430282704745
:1011100082894FF2FF731A40828182890A43828159
:10112000704721B1828942F00202828104E0828903
:101130004FF6FD731A4082817047028A4FF6DF73C3
:101140001A400282028A0A430282704721B1028A4F
:1011500042F48042028204E0028A4BF6FF731A4096
:1011600002827047C1F30802828070470146888876
:10117000C0F308007047818941F001018181704707
:10118000028BD2B20283028B42EA012202837047B1
:10119000028B02F47F420283028B0A430283704770
:1011A00021B1828A42F02002828204E0828A4FF6D4
:1011B000DF731A408282704721B1828A42F01002A6
:1011C000828204E0828A4FF6EF731A40828270476F
:1011D00021B1828A42F00802828204E0828A4FF6BC
:1011E000F7731A4082827047828A4FF6FB731A4067
:1011F0008282828A0A438282704721B1828A42F0C7
:101200000202828204E0828A4FF6FD731A408282D3
:10121000704702460020B1F5007F00D100BF13885F
:101220000B4201D0012000E00020704701F4007261
:10123000B2F5007F00D100BFCA430280704770B58D
:1012400002460024002300250020A1F510666A3E16
:1012500000D100BFC1F3421501F01F03012606FAB9
:1012600003F3012D02D19689334006E0022D02D10D
:10127000168A334001E0968A33400C12012606FAA2
:1012800004F41688344013B10CB1012000E00020B2
:1012900070BD10B500220023A1F510646A3C00D196
:1012A00000BF0A1201249440A3B2DC43048010BDA5
:1012B000003801400044004000480040004C00401D
:1012C00000500040704700000FB4044910B503AA55
:1012D000029800F0D3F810BC5DF814FB0000002069
:1012E0002DE9F04104460E4600200AE0E168204660
:1012F000884738B3252806D0D4E901219047206AD1
:10130000401C2062F2E7E16820460027884705007C
:1013100018D0A5F14100192802D820354FF40067F4
:101320003246294620462760FEF73CFF40B101289F
:1013300004D0F61D26F007060836D7E7361DD5E798
:101340002846D9E7206ABDE8F08100002DE9F04188
:101350008046002610687529414615A512D0AFF3C6
:101360000080002803DAC0F1000012A508E0D8F8D8
:1013700000108A0701D510A502E0490704D50FA582
:10138000012601E0AFF30080002408F1240704E007
:1013900000F086F830313955641C0028F8D1334606
:1013A0002A4621464046BDE8F04100F00DB8000055
:1013B000000000002D0000002B00000020000000B5
:1013C00070477047704770472DE9F0470D46044657
:1013D0009246994600F124080168880604D5E06920
:1013E00021F01001216000E001200027A84201DD6A
:1013F000A0EB0507A16907EB050202EB0300A1EBD7
:101400000000A0612068C00602D42046AFF300802F
:10141000002608E0D4E901211AF806009047206A66
:10142000401C761C20624E45F4DB2068C0060AD5BD
:101430002046AFF3008006E0D4E901213020904738
:10144000206A401C2062381EA7F10107F4DC07E087
:10145000D4E9012118F805009047206A401C206259
:10146000281EA5F10105F3DC2046AFF300802168BA
:101470000220090600D40120BDE8F087074B70B5B3
:101480000C467B4400F019F80546204600F028F889
:1014900010B14FF0FF3070BD284670BDB9EFFFFFAF
:1014A0004FF00A01B0FBF1F202FB11011046704748
:1014B00001694A1C02610878704700B58FB0CDE918
:1014C00001310021059105497944CDE90310114608
:1014D0006846FFF705FF0FB000BD0000E5FFFFFF06
:1014E000C06800F080007047754600F029F8AE46ED
:1014F00005006946534620F00700854618B020B520
:10150000FEF70EFFBDE820404FF000064FF0000749
:101510004FF000084FF0000B21F00701AC46ACE89B
:10152000C009ACE8C009ACE8C009ACE8C0098D4608
:1015300070470446AFF300802046FEF747FE0000E8
:10154000004870471800002001487047704700BFEE
:101550001C00002010B5FFF7F7FF4FF000010160FD
:1015600010BD0000841500080000002018000000D5
:101570006C0100089C15000818000020600800009D
:1015800088010008000000000000000001020304C0
:0C15900001020304060708090204060813
:0400000508000131BD
:00000001FF
