:020000040800F2
:1000000000040020FF0200089D0900089F09000865
:10001000A3090008A7090008AB09000800000000B8
:10002000000000000000000000000000AF09000810
:10003000B109000800000000B3090008B509000874
:100040001F0300081F0300081F0300081F03000808
:100050001F0300081F0300081F0300081F030008F8
:100060001F0300081F0300081F0300081F030008E8
:100070001F0300081F0300081F0300081F030008D8
:100080001F0300081F0300081F0300081F030008C8
:100090001F0300081F0300081F0300081F030008B8
:1000A0001F0300081F0300081F0300081F030008A8
:1000B0001F0300081F0300081F0300081F03000898
:1000C0001F0300081F0300081F0300081F03000888
:1000D0001F030008450600081F0300081F0300084F
:1000E0001F0300081F0300081F0300081F03000868
:1000F0001F0300081F0300081F0300081F03000858
:100100001F0300081F0300081F0300081F03000847
:100110001F0300081F0300081F0300081F03000837
:100120001F0300081F0300081F0300081F03000827
:1001300000F002F800F041F80AA090E8000C8244B8
:100140008344AAF10107DA4501D100F036F8AFF295
:10015000090EBAE80F0013F0010F18BFFB1A43F0A5
:10016000010318475826000078260000103A24BFE3
:1001700078C878C1FAD8520724BF30C830C144BF0C
:1001800004680C607047000000230024002500264E
:10019000103A28BF78C1FBD8520728BF30C148BFEA
:1001A0000B607047642901F03B85002070471FB544
:1001B00002F0FCFA1FBD10B510BD01F08FFE114614
:1001C000FFF7F5FF00F0FEF801F0ADFE03B4FFF716
:1001D000F2FF03BC00F0CAF900210020434A126874
:1001E00042F48032414B1A6000BF404A126802F468
:1001F0000030491C10B9B1F5A06FF6D13B4A126826
:1002000012F4003F01D0012000E00020012843D17A
:10021000374A126842F01002354B1A601A461268CB
:1002200022F003021A601A46126842F002021A60B3
:100230002E4A52682D4B5A601A4652685A601A4626
:10024000526842F480625A601A46526822F47C1264
:100250005A601A46526842F4E8125A601A46126806
:1002600042F080721A6000BF204A126812F0007FCC
:10027000FAD01E4A526822F003021C4B5A601A46FA
:10028000526842F002025A6000BF184A526802F0F7
:100290000C02082AF9D101E000BFFEE7704710B553
:1002A000FFF79AFF10BD10B51048006840F001003C
:1002B0000E490860084640680E4908400B494860EE
:1002C000084600680C49084008490860084600686C
:1002D00020F4802008600846406820F4FE00486052
:1002E0004FF41F008860FFF7DAFF10BD00100240D6
:1002F000002002400000FFF8FFFFF6FE70470B48A9
:1003000080470B4981F308880A480047FEE7FEE76B
:10031000FEE7FEE7FEE7FEE7FEE7FEE7FEE7FEE7B5
:1003200005480649064A074B70470000FD020008D1
:10033000880800203101000888000020880800207B
:100340008804002088040020002109E0002201E048
:10035000531C9AB242F614039A42F9DB4B1C99B231
:100360008142F3DB704708B501214FF4A07001F022
:10037000E2F94FF48040ADF8000010208DF8030042
:1003800003208DF8020069465C4800F031FF08BD8B
:1003900008B500214FF0006000F08EFE4FF4A06021
:1003A00000F04AFE25208DF8000002208DF80100A3
:1003B00000208DF8020001208DF80300684600F04F
:1003C00040FE08BD1FB5FFF76EFFFFF7E1FFFFF727
:1003D000CAFF00F0F9F84FF4E13000F015F900F031
:1003E00094F900F0ACF900F0D3F900F0FAF900F05C
:1003F0005DFA00F065FA73E0414800686FEA0000BA
:100400004049C1F8B8014FF0C800FFF79DFF3E48D2
:1004100000883E490880C820FFF796FF3B480088C7
:1004200001F0BDFF80464FF06632394B01F0CAFF44
:1004300006460022374B01F02DFE0446364A374B64
:1004400002F0BEF8364A374BCDE9000101F022FE3A
:1004500082460022344B01F077FDCDE9020101F024
:1004600071FF32490880294802880846018830A077
:1004700001F0A2FB802000F062F935A000F0DBF96A
:10048000872000F05CF935A000F0D5F927480088F6
:10049000C0B20A2190FBF1F031490870234800886E
:1004A000C0B20A2190FBF1F201FB12002D49087045
:1004B0002B48007830302C490870852000F03FF937
:1004C0002948007800F064F9264800783030264941
:1004D0000870862000F033F92348007800F058F9BE
:1004E0008AE7002107E0002201E0531C9AB2092AA2
:1004F000FBDB4B1C99B28142F5DB704700200140C9
:10050000B8012442000024420C000020000000201A
:1005100066660A400000B040E17A14AE47E1F63F5B
:1005200022FDF675E09C713F00003940020000207A
:10053000B5B1C7B0CEC2B6C83D2564094144433108
:10054000B5C4B2C9BCAFD6B53D25336400000000C8
:10055000B5B1C7B0CEC2B6C83D000000B6C80000F5
:10056000040000200500002006000020014600BF16
:10057000704770B504460D4600BF80213D4801F02C
:10058000C0FA0028F9D0A1B23A4801F063FA204637
:1005900070BD10B5044600BF8021364801F0B1FAA5
:1005A0000028F9D02146334801F054FA10BD10B5A7
:1005B00000BF20212F4801F0A4FA0028F9D02D48CF
:1005C00001F04CFAC0B210BD08B5012144F204009C
:1005D00001F0B1F84FF40070ADF8000018208DF86C
:1005E000030003208DF802006946234800F000FE56
:1005F0004FF48060ADF8000004208DF803006946D8
:100600001D4800F0F5FD08BD1FB50446009400200C
:10061000ADF80400ADF80600ADF80800ADF80C0028
:100620000C20ADF80A006946124801F032F90122A7
:1006300040F225510F4801F0A9F901210D4801F0C0
:1006400099F91FBD10B540F225510A4801F06FFA23
:1006500040F22551074801F094FA064801F0FEF9EE
:10066000C4B2214605A001F0A7FA05A001F0A4FA42
:1006700010BD000000380140000801402564000062
:100680000A0D0000002109E0002201E0531C9AB28B
:1006900042F614039A42F9DB4B1C99B28142F3DB18
:1006A0007047002107E0002201E0531C9AB2092A9A
:1006B000FBDB4B1C99B28142F5DB704708B510207B
:1006C0008DF8030003208DF8020040F6FF70ADF8AE
:1006D00000000121202001F02EF86946704800F04A
:1006E00087FD08BD08B504208DF8030003208DF8B0
:1006F0000200FF20ADF800000121202001F01BF8CE
:100700006946674800F074FD08BD10B5FFF7EAFFC1
:100710004FF48071624800F018FE4FF40071604899
:1007200000F011FE4FF480615D4800F00CFE4FF4C4
:1007300080615B4800F009FEFFF7C0FF10BD10B5F7
:100740000446FFF7E2FF4FF48071554800F0FDFDCD
:100750004FF40071524800F0F8FD4FF480615048AA
:1007600000F0F1FD4F48006800F47F4040EA0400CB
:100770004D49C1F80C044FF00200FFF783FF4FF41E
:100780008061474800F0E1FD0220FFF77BFF10BDCC
:1007900010B50446FFF7B9FF4FF48071404800F0F0
:1007A000D2FD4FF400713E4800F0CFFD4FF4806160
:1007B0003B4800F0C8FD3B48006800F47F4040EA39
:1007C00004003949C1F80C044FF00200FFF75AFF4A
:1007D0004FF48061324800F0B8FD0220FFF752FF6D
:1007E00010BD10B5FFF76AFF4FF400612C4800F010
:1007F000AAFD0220FFF746FF3020FFF7A0FF0220EE
:10080000FFF740FF3020FFF79AFF0220FFF73AFF83
:100810000120FFF794FF0220FFF734FF0620FFF7C7
:100820008EFF0220FFF72EFF0C20FFF788FF02202B
:10083000FFF728FF10BD10B5044606E02078FFF74B
:10084000A7FF641C0220FFF71DFF20780028F5D1C8
:1008500010BD70B505460C46012D06D0022D0AD0FC
:10086000032D0ED0042D18D111E004F17F01C8B280
:10087000FFF765FF11E004F18F01C8B2FFF75FFFDA
:100880000BE004F18701C8B2FFF759FF05E004F15E
:100890009701C8B2FFF753FF00BF00BF70BD000053
:1008A000001401400C1401400010014010B501215A
:1008B000084600F033FF0121480200F03CFF10BD64
:1008C00000B591B0324800F097FA324806903248AD
:1008D0000790002008900120099000200A900B90BA
:1008E0004FF480700C9080000D9020200E9000023C
:1008F0000F900020109006A9254800F01CFB012154
:10090000234800F043FB012000F030FA0020019062
:1009100001208DF808008DF809004FF46020039045
:100920000020049001208DF8140001A919484C38CA
:1009300000F069F807230122102116484C3800F016
:10094000FAF8012113484C3800F094F801211148BD
:100950004C3800F084F80F484C3800F0A2F800BF83
:100960000C484C3800F0A2F80028F9D109484C385E
:1009700000F0A6F800BF07484C3800F0A6F80028A1
:10098000F9D1012103484C3800F0A9F811B000BD9D
:10099000080002404C2401400C000020704700BFBA
:1009A000FEE700BFFEE700BFFEE700BFFEE77047BF
:1009B000704770477047000010B50446F8488442FD
:1009C00008D10121401500F0D0FE0021601500F093
:1009D000CCFE17E0F348844208D10121001500F055
:1009E000C4FE0021201500F0C0FE0BE0EE4884425A
:1009F00008D10121C80300F0B8FE00214FF40040E7
:100A000000F0B3FE10BD30B5024600200023506850
:100A1000E64C20400D790C6844EA052420435060E0
:100A20009068E34C2040D1E902542C434D7944EACC
:100A3000450420439060D06A20F470000C7C641E52
:100A4000E4B2234340EA0350D06230BD002101608C
:100A5000017141718160C16001210174704721B150
:100A6000826842F00102826003E0826822F00102A3
:100A70008260704721B1826842F48072826003E034
:100A8000826822F480728260704710B50023CBB276
:100A90001AB144681C43446002E044689C434460CB
:100AA00010BD816841F00801816070470146002057
:100AB0008A6812F0080F01D0012000E00020704782
:100AC000816841F0040181607047014600208A6816
:100AD00012F0040F01D0012000E00020704721B186
:100AE000826842F4A002826003E0826822F4A002DD
:100AF00082607047014600208A6812F4800F01D09E
:100B0000012000E00020704710B50A4600210023B4
:100B1000416821F46041531E41EA4331416010BDF8
:100B200021B1426842F40062426003E0426822F46C
:100B3000006242607047F0B504460D460020002177
:100B4000092D11DDE068A5F10A0606EB4607072628
:100B500006FA07F18843A5F10A0606EB460603FAF2
:100B600006F10843E0600CE0206905EB4507072625
:100B700006FA07F1884305EB450603FA06F1084338
:100B80002061072A0FDA606B561E06EB86071F26C8
:100B900006FA07F18843561E06EB860605FA06F1AB
:100BA0000843606322E00D2A0FDA206BD61F06EBA4
:100BB00086071F2606FA07F18843D61F06EB86062E
:100BC00005FA06F10843206310E0E06AA2F10D0681
:100BD00006EB86071F2606FA07F18843A2F10D06E9
:100BE00006EB860605FA06F10843E062F0BD21B186
:100BF000826842F48012826003E0826822F48012EC
:100C0000826070470146C86C80B2704769480068CE
:100C1000704721B1426842F48062426003E042685A
:100C200022F480624260704721B1426842F48052EF
:100C3000426003E0426822F48052426070470A46F4
:100C40000021816821F4E04111438160704721B1A6
:100C5000826842F40042826003E0826822F400422B
:100C60008260704721B1826842F40212826003E020
:100C7000826822F4021282607047014600208A686E
:100C800012F4001F01D0012000E000207047F0B5F1
:100C900004461546002000220026092911DDE068DF
:100CA000A1F10A0707EB470C072707FA0CF290435C
:100CB000A1F10A0707EB470703FA07F21043E060C8
:100CC0000CE0206901EB410C072707FA0CF2904376
:100CD00001EB410703FA07F210432061A06BC0F358
:100CE0000156EF1C06F1010CA7EB0C0707EB870C74
:100CF0001F2707FA0CF29043EF1C06F1010CA7EB3B
:100D00000C0707EB870701FA07F21043A063F0BD59
:100D100010B50A4600210023816B21F44011531EB7
:100D200041EA0351816310BD10B5002303460B4413
:100D30001A6010BD02460023134601F12800034447
:100D4000186880B270470A46002141681A4B194062
:100D50001143416070474162826270470A46002138
:100D6000416821F01F0111434160704738B11349B8
:100D7000096841F40001124AC2F8081406E00F495C
:100D8000096821F400010E4AC2F8081470470246AF
:100D9000002013680B4201D0012000E000207047C2
:100DA0000024014000280140003C0140FFFEF0FF0C
:100DB000FDF7F1FF4C240140FFFD3FFF08240140F7
:100DC00000200140CA430260704770B5024600200F
:100DD000002300240B125568CEB205EA06041568FC
:100DE0001D4202D00CB1012000E0002070BD0022A5
:100DF0000A12D34303607047016821F001010160CA
:100E00000021016041608160C1608649884208D14B
:100E100084490839496841F00F01824A083A516013
:100E200088E080491431884208D17E4908394968F0
:100E300041F0F0017B4A083A51607BE07949283162
:100E4000884208D177490839496841F47061754A88
:100E5000083A51606EE073493C31884208D17149CB
:100E60000839496841F470416E4A083A516061E0BE
:100E70006C495031884208D16A490839496841F4BF
:100E80007021684A083A516054E0664964318842EA
:100E900008D164490839496841F47001614A083A47
:100EA000516047E05F497831884208D15D4908398F
:100EB000496841F070615B4A083A51603AE05A492A
:100EC000884208D1A0F10401096841F00F01574A96
:100ED000C2F804142EE054491431884207D1544911
:100EE000096841F0F001514AC2F8041422E04E4969
:100EF0002831884207D14E49096841F470614B4A54
:100F0000C2F8041416E048493C31884207D14849E8
:100F1000096841F47041454AC2F804140AE04249A4
:100F20005031884206D14249096841F470213F4A54
:100F3000C2F80414704710B50022026847F6F07337
:100F40009A430C6A8B6823430C6923434C692343FF
:100F50008C692343CC6923434C6A23438C6A234323
:100F60001A430260CB6843600B6883604B68C360C0
:100F700010BD0021016041608160C160016141617B
:100F80008161C161016241628162704721B1026881
:100F900042F00102026003E0026822F001020260F6
:100FA00070471AB103680B43036002E003688B4388
:100FB000036070470146486880B2704701460020D0
:100FC000002211F0805F02D01A4B1A6801E0174B23
:100FD0001A680A4201D0012000E00020704710F09A
:100FE000805F02D01249086001E0104948607047F4
:100FF00001460020002211F0805F02D00D4B1A68DC
:1010000001E00A4B1A680A4201D0012000E00020EA
:10101000704710F0805F02D00549086001E0034985
:101020004860704708000240080402400000024087
:10103000040402400004024036490143364A11606C
:10104000704770B5002100230F22C4784CB3324C96
:10105000246804F4E064C4F5E0644FEA1421C1F1AB
:10106000040322FA01F2447804FA03F1847804EAD2
:10107000020444EA01014FEA0111284C0678A15507
:10108000047804F01F054FF0010404FA05F4057814
:101090004FEA65154FF0E02606EB8505C5F80041DF
:1010A00009E0047804F01F050124AC401C4D0678CB
:1010B000761145F8264070BD1A4A0A4002431A4B81
:1010C0001A60704741B1194A126842EA00024FF0B3
:1010D000E023C3F8102D07E0144A126822EA000248
:1010E0004FF0E023C3F8102D7047042808D14FF0CB
:1010F000E021096941F004014FF0E022116107E0AD
:101100004FF0E021096921F004014FF0E022116164
:10111000704700000000FA050CED00E000E400E07C
:1011200080E100E080FFFF1F08ED00E010ED00E02F
:1011300010B50446C248844208D10121042000F0C1
:1011400014FB0021042000F010FB46E0BD4884425F
:1011500008D10121082000F008FB0021082000F040
:1011600004FB3AE0B848844208D10121102000F085
:10117000FCFA0021102000F0F8FA2EE0B348844277
:1011800008D10121202000F0F0FA0021202000F0F9
:10119000ECFA22E0AE48844208D10121402000F060
:1011A000E4FA0021402000F0E0FA16E0A948844269
:1011B00008D10121802000F0D8FA0021802000F021
:1011C000D4FA0AE0A448844207D10121801500F036
:1011D000CCFA0021A01500F0C8FA10BD10B501210D
:1011E000084600F0C2FA0021012000F0BEFA10BD4E
:1011F0002DE9F041024600250026002000230024AE
:10120000002791F803C00CF00F0591F803C01CF003
:10121000100F03D091F802C04CEA0505B1F800C0E8
:101220001CF0FF0F31D0146800202BE04FF0010CB0
:101230000CFA00F3B1F800C00CEA03069E4220D17C
:1012400083004FF00F0C0CFA03F7BC4305FA03FCC4
:101250004CEA040491F803C0BCF1280F06D14FF00A
:10126000010C0CFA00FCC2F814C00AE091F803C0AB
:10127000BCF1480F05D14FF0010C0CFA00FCC2F88C
:1012800010C0401C0828D1D31460B1F800C0BCF1D4
:10129000FF0F34DD546800202EE000F1080C4FF001
:1012A000010808FA0CF3B1F800C00CEA03069E42EC
:1012B00021D183004FF00F0C0CFA03F7BC4305FA61
:1012C00003FC4CEA040491F803C0BCF1280F05D1DB
:1012D00000F1080C08FA0CF8C2F8148091F803C069
:1012E000BCF1480F07D100F1080C4FF0010808FAD3
:1012F0000CF8C2F81080401C0828CED35460BDE81A
:10130000F0814FF6FF710180022181700421C170CC
:1013100070470246002093680B4201D0012000E094
:10132000002070470146886880B27047024600205E
:10133000D3680B4201D0012000E000207047014635
:10134000C86880B2704701617047416170470AB157
:10135000016100E041617047C16070474FF4803225
:101360000A438261816182618269826970470246B3
:1013700000203A4B18684FF68073184040EA02107C
:101380000843364B186070473549C8617047F0B55F
:101390000A460023002400210025304E7168C0F366
:1013A000034583B200F44016B6F5401F08D121F082
:1013B00070612A4E766826F07066284F7E6012E0D3
:1013C00000F48016B6F5801F06D1032606FA05F450
:1013D000A14341F0706106E0460D360103FA06F6BE
:1013E000B14341F0706122B1460D360103FA06F6B1
:1013F00031431A4E7160F0BD30B500228B071C0FCF
:101400000F2303FA04F2154B08338C1053F82430E1
:101410009343124C08348D1044F8253023468C1029
:1014200053F824308C07240F00FA04F423430B4CA8
:1014300008348D1044F8253030BD0A4908607047E3
:1014400000080140000C0140001001400014014060
:1014500000180140001C0140002001400000014034
:1014600000002042DC002042DB48006840F0010020
:10147000D949086008464068D8490840D6494860BC
:1014800008460068D6490840D34908600846006805
:1014900020F4802008600846406820F4FE00486080
:1014A0004FF41F0088607047CB49096821F48031F0
:1014B000C94A11601146096821F480211160B0F514
:1014C000803F03D0B0F5802F0ED106E0C2490968F5
:1014D00041F48031C04A116007E0BF49096841F416
:1014E000A021BD4A116000E000BF00BF704710B5E9
:1014F00001460022002300204A11012A02D1B64CE5
:10150000236806E0022A02D1B34C236A01E0B24C00
:10151000636A01F01F02012494401C4201D00120A3
:1015200000E0002010BD70B500240025002600BF9B
:101530003120FFF7DCFF0646641CB4F5A06F01D034
:10154000002EF5D03120FFF7D2FF08B1012500E0D1
:101550000025284670BD014600209F4A106820F0F3
:10156000F80040EAC100106070479E49086070476B
:1015700002460020984B586820F47C1042EA010390
:101580001843954B58607047964908667047014666
:101590000020914A506820F00300084350607047D3
:1015A0008D48406800F00C007047014600208A4AD0
:1015B000506820F0F000084350607047014600205A
:1015C000854A506820F4E060084350607047014647
:1015D0000020814A506820F4605040EAC100506009
:1015E000704729B17C4A527A02437B4B5A7206E01B
:1015F000794A527AC343DBB21A40774B5A7270472A
:1016000079490860704701460020734A506820F409
:1016100040400843506070470021744A11706E4A80
:1016200082F82010012802D0042808D103E001210B
:101630006E4A117004E005216C4A117000E000BF91
:1016400000BF70476A49086070476349096A0143EF
:10165000614A1162704767490860704730B50021E0
:101660000022002400235C4D6D6805F00C0121B1BF
:10167000042905D0082923D105E05F4D056022E04B
:101680005D4D05601FE0544D6D6805F47012524DBC
:101690006D6805F48034022505EB92421CB9574D64
:1016A000554305600BE04C4D6D6815F4003F03D0C9
:1016B000524D5543056002E04F4D5543056002E031
:1016C0004D4D056000BF00BF434D6D6805F0F00152
:1016D00009094B4D6B5C0568DD4045603E4D6D680A
:1016E00005F4E061090A464D6B5C4568DD408560A4
:1016F000394D6D6805F46051C90A414D6B5C456810
:10170000DD40C560344D6D6805F44041890B3D4DA9
:101710006B5CC568B5FBF3F5056130BD29B12E4A98
:10172000526902432C4B5A6104E02B4A52698243AE
:10173000294B5A61704729B1274A92690243264BC7
:101740009A6104E0244A92698243234B9A6170476C
:1017500029B1214AD26902431F4BDA6104E01E4AD3
:10176000D26982431C4BDA61704729B11A4AD268A8
:101770000243194BDA6004E0174AD2688243164BE1
:10178000DA60704729B1144A12690243124B1A6198
:1017900004E0114A126982430F4B1A6170471A49DB
:1017A000086070470F49C86470470B49C87170479B
:1017B0000948406A40F08070074948627047014616
:1017C0000020054A92680A4201D0012000E0002072
:1017D0007047014988727047001002400000FFF80E
:1017E000FFFFF6FE00004242D800424220100240B5
:1017F000800442423C04424200127A0000093D004B
:101800000E0000201E0000204004424210B5044695
:10181000E348844209D101218803FFF7A6FF002194
:101820004FF48040FFF7A1FF32E0DE48844209D147
:1018300001214804FFF7A6FF00214FF40030FFF715
:10184000A1FF25E0D848844209D101218804FFF78F
:1018500099FF00214FF48020FFF794FF18E0D34850
:10186000844209D10121C804FFF78CFF00214FF405
:101870000020FFF787FF0BE0CD48844208D101210B
:101880000805FFF77FFF00214FF48010FFF77AFF74
:1018900010BD2DE9F04786B005460E460024A2464D
:1018A00000BF00BF0027B08900B100BF2F462C8ABF
:1018B0004CF6FF700440F08804432C82AC894EF64D
:1018C000F3100440B0883189084371890843044308
:1018D000AC81AC8A4FF6FF400440B0890443AC822F
:1018E00001A8FFF7BBFEAE48874202D1DDF810A089
:1018F00001E0DDF80CA00AEBCA0000EB0A10316829
:101900008900B0FBF1F86420B8FBF0F00401200975
:10191000642101FB1089322000EB0910B0FBF1F0CB
:1019200000F00F0004432C8106B0BDE8F0874FF4AF
:101930001651016000218180C18001810C2141810B
:1019400000218181704710B502460020108A4FF2B5
:10195000FF0318400B884C8823438C882343CC8892
:1019600023431843108210BD0021018041808180F3
:10197000C180704721B1828942F40052828104E023
:1019800082894DF6FF731A4082817047F0B5034695
:101990000024002600250020A1F510676A3F00D131
:1019A00000BF1846C1F3421401F01F06012707FAD1
:1019B00006F5012C01D10C3004E0022C01D11030CD
:1019C00000E014301AB107682F43076002E007688F
:1019D000AF430760F0BD10B51AB1838A0B43838211
:1019E00004E0838ACC43A4B22340838210BD028AE0
:1019F0004FF6F0731A400282028A0A43028270474D
:101A000082894FF2FF731A40828182890A43828160
:101A1000704721B1828942F00202828104E082890A
:101A20004FF6FD731A4082817047028A4FF6DF73CA
:101A30001A400282028A0A430282704721B1028A56
:101A400042F48042028204E0028A4BF6FF731A409D
:101A500002827047C1F3080282807047014688887D
:101A6000C0F308007047818941F00101818170470E
:101A7000028BD2B20283028B42EA012202837047B8
:101A8000028B02F47F420283028B0A430283704777
:101A900021B1828A42F02002828204E0828A4FF6DB
:101AA000DF731A408282704721B1828A42F01002AD
:101AB000828204E0828A4FF6EF731A408282704776
:101AC00021B1828A42F00802828204E0828A4FF6C3
:101AD000F7731A4082827047828A4FF6FB731A406E
:101AE0008282828A0A438282704721B1828A42F0CE
:101AF0000202828204E0828A4FF6FD731A408282DB
:101B0000704702460020B1F5007F00D100BF138866
:101B10000B4201D0012000E00020704701F4007268
:101B2000B2F5007F00D100BFCA430280704770B594
:101B300002460024002300250020A1F510666A3E1D
:101B400000D100BFC1F3421501F01F03012606FAC0
:101B500003F3012D02D19689334006E0022D02D114
:101B6000168A334001E0968A33400C12012606FAA9
:101B700004F41688344013B10CB1012000E00020B9
:101B800070BD10B500220023A1F510646A3C00D19D
:101B900000BF0A1201249440A3B2DC43048010BDAC
:101BA000003801400044004000480040004C004024
:101BB00000500040704700000FB4044910B503AA5C
:101BC000029800F055F910BC5DF814FB08000020E5
:101BD00070B50446856900683026C10600D4202609
:101BE000C00708D070BDD4E9012130469047206A73
:101BF00000F1010020626D1EF5D570BD70B5044680
:101C000085690068C00708D170BDD4E90121202092
:101C10009047206A00F1010020626D1EF5D570BD6D
:101C20002DE9F0418046002610687529414615A52A
:101C300012D0AFF30080002803DAC0F1000012A533
:101C400008E0D8F800108A0701D510A502E049077E
:101C500004D50FA5012601E0AFF30080002408F1B0
:101C6000240704E000F016F930313955641C0028CF
:101C7000F8D133462A4621464046BDE8F04100F0FF
:101C80009CB80000000000002D0000002B000000A8
:101C9000200000002DE9F05F4FF0000B044689465C
:101CA0004FF0010AC0F820B02046E168884798B399
:101CB000252806D0D4E901219047206A401C2062E3
:101CC000F2E7E168204600268847C4F81CB00546C4
:101CD0000027C4F818B02A2D0DD05246A5F13001C6
:101CE0000A292ED2BAF1000F2BD0924604EB8708B6
:101CF000C8F818101AE059F8041B204604EB8702B4
:101D00009161E1688847012F05461CD1E0690028F0
:101D100024DA26F0200621E048E0D8F8180000EB8D
:101D2000800005EB40003038C8F818002046E16814
:101D30008847A0F1300105460A2902D2BAF1000F06
:101D4000EBD1012F0AD02E2D08D12046E16888471B
:101D50007F1C0546022F46F02006BCDBA069002848
:101D600003DA404246F00106A061F00701D026F0F8
:101D70001006DDB1A5F14100192802D8203546F43E
:101D800000664A462946204626604E46FEF70AFA75
:101D900050B1012805D0F61D26F0070000F1080912
:101DA00082E706F104097FE7284683E7206ABDE859
:101DB000F09F70477047704770472DE9F0470D4618
:101DC00004469246994600F124080168880604D525
:101DD000E06921F01001216000E001200027A84205
:101DE00001DDA0EB0507A16907EB050202EB03008B
:101DF000A1EB0000A0612068C00602D42046FFF7D6
:101E0000E7FE002608E0D4E901211AF80600904711
:101E1000206A401C761C20624E45F4DB2068C00618
:101E20000AD52046FFF7D4FE06E0D4E90121302090
:101E30009047206A401C2062381EA7F10107F4DC9D
:101E400007E0D4E9012118F805009047206A401CFA
:101E50002062281EA5F10105F3DC2046FFF7CEFE27
:101E600021680220090600D40120BDE8F0870000A7
:101E7000074B70B50C467B4400F019F80546204628
:101E800000F028F810B14FF0FF3070BD284670BD4B
:101E9000F9E6FFFF4FF00A01B0FBF1F202FB11017E
:101EA0001046704701694A1C02610878704700B506
:101EB0008FB0CDE901310021059105497944CDE983
:101EC000031011466846FFF7E5FE0FB000BD0000A5
:101ED000E5FFFFFFC06800F080007047754600F026
:101EE00029F8AE4605006946534620F007008546AE
:101EF00018B020B5FEF714FABDE820404FF00006F8
:101F00004FF000074FF000084FF0000B21F00701E1
:101F1000AC46ACE8C009ACE8C009ACE8C009ACE824
:101F2000C0098D4670470446AFF300802046FEF797
:101F30004DF9000000487047240000200148704718
:101F4000704700BF2800002010B591EA030F48BF7A
:101F500083F0004300F14883841A71EB030E05D22D
:101F6000121943EB0E03001B61EB0E01DFF820C1D9
:101F70004FEA1154A4EB135E1CEA430F18BF9CEA0E
:101F8000445F71D023EA0C03DEF1200C21EA0451F6
:101F900043F4801332D322FA0EFC10EB0C0023FA28
:101FA0000EFC41EB0C01CEF1200C03FA0CFC10EB03
:101FB0000C0051F10001B1F5801FCEF1200C32D29E
:101FC00001EB0451BDE8104012FA0CF258BF704703
:101FD000401C38BF5FEA420218BF7047002814BF98
:101FE00020F0010041F100014FEA410313F5001F09
:101FF00038BF7047A1F1C04100F0DCBA012A43EBC1
:102000000302AEF1200EDEF11F0C32BF4FF0000CC8
:1020100023FA0EF310EB030041EB0451B4EB115F14
:10202000D0D0A1EB045101F58011490801EB045116
:10203000BDE810405FEA30000CD350F1000038BF1B
:1020400012FA0CFC06D1C9E7401C38BF5FEA420215
:10205000CAD1C3E74FEA410313F5001F38BF7047E9
:10206000A1F1C04100F0A6BA9CEA445F08D0BDE8E7
:10207000104011EA5C0F04BF01F0004100207047DE
:10208000BDE8104070B500F047FA00BF64FBBE3EEB
:102090000000E0FF2DE9C04130B4DFF8A0C23CEA07
:1020A000111418BF3CEA131400F0EC8081EA030518
:1020B0001CEA111444EAD57418BF1CEA131500F089
:1020C000C780A4EB05044FF0004545EAC12145EA6D
:1020D000C32341EA505143EA525304F17F749942B9
:1020E00004F500344FEAC0204FEAC22208BF9042F4
:1020F00000F09C804FEA13650FF24016765D4FEAC0
:10210000134506FB05F7C7F1807706FB07F74FEA93
:10211000D737A7FB03687642C8F58038A7FB06CE01
:1021200038BFA8F1010807FB08E64FF0000EA6FB38
:10213000028CE6FB03CEDCF1000CCEF1004E38BF82
:10214000AEF1010EA6FB0C584FF000074FF0000552
:10215000E6FB0E87A1FB08C6A0FB07CE16EB0E061A
:1021600045F10005E1FB076515F1E04E7EBFA4F5E2
:1021700080345FEA46066D4116F1800745F100059F
:102180004FEA17274FEA066647EA0567A6F1DE46DB
:10219000B6F1805F4FEA15251FD9384624F0010CAF
:1021A00005EBC471BCF1FE6F01EB0C1102D8F0BC61
:1021B000BDE8008124425CBF01F5801E9EEAC47F19
:1021C00002D4F0BCBDE80081244238D4F0BCA1F1B7
:1021D000C041BDE8004100F0EDB94FEAD22242EA29
:1021E00043524FEAD323A7FB02864FEAD02040EAAE
:1021F000415007FB03661EEA0E0F4FEAD12105FB93
:10220000026658BFA6EB0056B6EB00564FEA520ED8
:102210004EEAC37E18EB0E0E56EB530EBDD518EBEF
:1022200002085E417F1C55F10005B6E74FF48015AA
:102230004FF000074FF000064FF00008ADE7F0BC8C
:102240004FF0000001F1C04101F00041BDE8008104
:1022500011EA0C1F0CEA131500D00CE013EA0C1F56
:1022600000F025804FF00000F0BC81EA030101F08E
:102270000041BDE80081F0BCBDE8004181EA0301F6
:1022800000F098B9F0BCBDE8004170B500F044F929
:10229000097EFC3E00F007B881EA03014FF0000020
:1022A00001F00041704781EA030100F083B9F0BCFE
:1022B000BDE800414FF0000021497047FFFDFBF9E8
:1022C000F7F5F4F2F0EEEDEBE9E8E6E4E3E1E0DE69
:1022D000DDDBDAD8D7D5D4D3D1D0CFCDCCCBCAC8DB
:1022E000C7C6C5C4C2C1C0BFBEBDBCBBBAB9B8B702
:1022F000B6B5B4B3B2B1B0AFAEADACABAAA9A8A8F5
:10230000A7A6A5A4A3A3A2A1A09F9F9E9D9C9C9BC2
:102310009A9999989797969595949393929191906D
:102320008F8F8E8E8D8C8C8B8B8A898988888787FE
:102330008685858484838382828181800000FF0773
:102340000000F87F4FEA1153A3F58063D3F11E0319
:10235000A8BFD3F1200C08DB4FF0004242EAC122B3
:1023600052EA505232FA03F0704709420BD4102B54
:10237000C4BF0020704703F5787CBCF1FF3F05D057
:102380004FF0FF3070474FF00000704770B500F01D
:10239000C3F800BF4992248000207047F0E7B0FAEC
:1023A00080F310FA03F10AD0C3F11D0303F5806333
:1023B0004FEA41504FEA035202EBD12170474FF0F0
:1023C00000007047DFF848C170B51CEA111E1EBF3F
:1023D0001CEA13159EEA0C0F95EA0C0F00F06F80B3
:1023E00081EA030423EA4C134EEAD47E21EA4C111D
:1023F00041F4801143F48013AE44A1FB024CA0FBD6
:102400000365AEF17F7E361955EB0C05A1FB034C3D
:102410004CF10003A0FB021C16EB0C06654153F1C6
:102420000003094218BF46F0010613F4007F0BD1E8
:102430004FEA03314FEA0530340341EA155140EACF
:1024400016506FF003020AE04FEAC3214FEAC5209D
:10245000F40241EA555140EA56506FF0020202EB95
:102460002E4201EB025585EACE710AD05FEA440C98
:1024700018BF24F0004450F1000041F1000120EAAF
:10248000D47040F2FE7C624500D270BDA84214BFF9
:102490004FF080444FF04044002E08BF0024BEF1AE
:1024A000806FA8BFA1F1C041BDE8704080F282807A
:1024B0004FF0000001F1C04101F0004170479EEA79
:1024C0000C0F0CEA131518BF95EA0C0F06D04FF04D
:1024D000000081EA030E0EF0004170BD00F01CF810
:1024E0008900013E00F007B800F009B84FEA430C3C
:1024F0005FEA5C5C08D081EA030100F05BB84FEA58
:10250000410C5FEA5C5CF6D14FF000000149704776
:102510000000FF070000F87F0EF1020E2EF0030E00
:102520005EF8046B364205D4012A43EB030515F52A
:10253000001F12D8012841EB010C1CF5001F0CD81C
:102540000ED14FEAD17C15F5001F0CEB4C0C0CF1B1
:10255000020C08BF4CEBD37C04E04FF0080C01E008
:102560004FEAD37C0CEB4C0526FA05F606F007067D
:10257000B6F1040C06D20EEB860CBDE870404CF0B0
:10258000010C6047DFE80CF0090B02024FF000413C
:102590004FF00000A1F5002170BD1946104601283A
:1025A00051EB010418BFD4F5001484BF002001F0E2
:1025B000004170BD0808A0F500114FEA31017047D5
:1025C00091EA030F10B581F000413FF5C5AC83F0EF
:1025D000004300F009B8000010B591EA030F48BFAE
:1025E00083F000433FF5B8AC841A71EB030E07D2B9
:1025F00012198EF0004E43EB0E03001B61EB0E012F
:10260000DFF8A4C14FEA1154A4EB135E1CEA430F98
:1026100018BF9CEA445F00F0B08023EA6C0352428A
:1026200021EA0451C3EB6C0338BF5B1EDEF1200CC2
:1026300025D322FA0EFC10EB0C0043FA0EFC41EB02
:102640000C01CEF1200C03FA0CFC10EB0C0051F144
:102650000001CEF1200C29D401EB0451BDE810405B
:1026600012FA0CF258BF7047401C1CBFB2F1004F69
:10267000704700280CBF491C20F00100704712EB86
:10268000020C43EB030218BF4FF0010C4CEA42026C
:10269000AEF1200EDEF11E0C54D943FA0EFC10EB05
:1026A0000C0051F1FF31CEF11E0CD5D50CF1010C0F
:1026B00012FA0CFC404141EB010101EB445E5FEA80
:1026C0005E5E10D901EB0451BDE8104010EBDC70E8
:1026D00038BFBCF1004F18BF704700280CBF491C21
:1026E00020F00100704730D24FEAD42E11F50011CE
:1026F00024F400641BD0B1FA81F20B3AA41AA41E90
:10270000D2F12003914030FA03F31943904001EBDA
:10271000CE71002C01EB0451BDE81040A8BF7047FA
:1027200001F1C0414FF0000001F000417047B0FAE4
:1027300080F310FA03F100D110BDE41A173C4805EC
:10274000C90AE4E701EB045110BD491001EB045143
:10275000BDE810404FEA300002E04FF00001704742
:102760004A0008BF0042F8D0B2F5001F28BF7047EA
:1027700001F000414FF0000070479CEA445F07D031
:10278000BDE8104011EA5C0F04BF00210020704733
:10279000BDE8104070B5FFF7BFFE00BF40DFF63E5A
:1027A00083F00041104670470000E0FF10B5FFF7CE
:1027B000C5FB4FF00001016010BD0000DC270008E0
:1027C00000000020240000006C0100080028000820
:1027D00024000020640800008801000800000000B8
:1027E00000000000000000000000000000000102E6
:1027F0000304010203040607080902040608000096
:0400000508000131BD
:00000001FF
